:020000040800F2
:100000000000022061AB0008350700083B0700082C
:1000100041070008470700084D07000800000000DE
:10002000000000000000000000000000530700086E
:1000300061070008000000006F0700087D07000846
:10004000B1AB0008B1AB0008B1AB0008B1AB000820
:10005000B1AB0008B1AB0008B1AB0008B1AB000810
:10006000B1AB0008B1AB0008B1AB0008B1AB000800
:10007000B1AB0008B1AB0008B1AB0008B1AB0008F0
:10008000B1AB0008B1AB0008B1AB000889070008AC
:10009000B1AB00089D070008B1AB0008B1AB000888
:1000A000B1AB0008B1AB0008B1AB0008B1AB0008C0
:1000B000B1AB0008B1AB0008B1AB0008B1AB0008B0
:1000C000B1AB0008B1AB0008B1AB0008B1AB0008A0
:1000D000B1AB0008B1AB0008B1AB0008B1AB000890
:1000E000B1AB0008B1AB000800000000B1AB0008E4
:1000F000B1AB0008B1AB0008B1AB0008B1AB000870
:10010000B1AB0008B1AB0008B1AB0008B1AB00085F
:10011000B1AB0008B1AB0008B1AB0008B1AB00084F
:10012000B1AB0008B1AB0008B1AB0008B1AB00083F
:10013000B1AB0008B1AB0008B1AB0008B1AB00082F
:1001400000000000000000000000000000000000AF
:10015000B1AB0008B1AB0008B1AB0008B1AB00080F
:10016000B1AB0008B1AB0008B1AB0008B1AB0008FF
:10017000B1AB0008B1070008B1AB000800000000F7
:10018000B1AB0008B1AB0008B1AB0008B1AB0008DF
:10019000B1AB0008B1AB0008B1AB0008B1AB0008CF
:1001A000B1AB0008B1AB0008B1AB00080000000023
:1001B000B1AB0008B1AB0008B1AB0008B1AB0008AF
:1001C000B1AB0008B1AB0008000000000000000067
:1001D0000000000000000000B1AB000800000000BB
:1001E000000000000000000000000000000000000F
:1001F0000000000000000000B1AB0008B1AB000837
:10020000B1AB0008B1AB000800000000B1AB0008C2
:10021000B1AB0008B1AB0008B1AB0008B1AB00084E
:10022000B1AB000800000000B1AB00080000000006
:10023000B1AB0008B1AB000800000000B1AB000892
:10024000B1AB0008B1AB0008B1AB0008B1AB00081E
:10025000B1AB0008B1AB0008B1AB0008B1AB00080E
:10026000B1AB0008B1AB0008B1AB0008B1AB0008FE
:10027000B1AB0008B1AB0008B1AB00080000000052
:10028000B1AB0008B1AB0008B1AB0008B1AB0008DE
:1002900000000000B1AB0008B1AB00080000000096
:1002A00000000000B1AB0008B1AB0008B1AB000822
:1002B000B1AB0008B1AB0008B1AB0008B1AB0008AE
:0C02C000B1AB0008B1AB0008B1AB000806
:1002D00010B5054C237833B9044B13B10448AFF380
:1002E00000800123237010BDA00100200000000049
:1002F00028AC000808B5034B1BB103490348AFF312
:10030000008008BD00000000A401002028AC000807
:1003100080B588B000AF00F0A3F902F045FE00F010
:100320002DF900F0CFF902F0F5FE05F003F88B4847
:1003300004F0ACF90346BB7500BF884803F018FA17
:100340000346002BF9D100220121844803F016FC5A
:10035000834B40F201121A60814B00225A60804B9D
:1003600000229A607E4B4FF40022DA607C4B002220
:100370005A617B4B00229A61794B0022DA6104F0CA
:1003800015FF322002F0A2FE4FF07E533B61754B09
:10039000FB600023FB7712E0FB7F734AD25CFB7F9C
:1003A00072499B000B44D3ED007AD7ED030AB0EEFF
:1003B000670A104604F0ECFDFB7F0133FB77FB7FFF
:1003C000032BE9D904F0B6FD40F6B83002F07EFE0A
:1003D0000023BB7708E0BB7F654A4FF4FA6142F81F
:1003E0002310BB7F0133BB77BB7F032BF3D904F012
:1003F00033FF04F05BFF40F6B83002F067FE0023E5
:100400007B7707E07B7F5A4A002142F823107B7FED
:1004100001337B777B7F032BF4D904F01DFF04F0BD
:1004200045FF642002F052FE524B3B6100233B77B4
:100430000CE03B7F4C4AD35CD7ED030A97ED040AEE
:10044000184604F0A5FD3B7F01333B773B7F032B30
:10045000EFD904F06FFD40F6B83002F037FE00230C
:10046000FB7608E0FB7E424A4FF4FA6142F8231023
:10047000FB7E0133FB76FB7E032BF3D904F0ECFE0D
:1004800004F014FF40F6B83002F020FE0023BB76E3
:1004900007E0BB7E364A002142F82310BB7E0133C1
:1004A000BB76BB7E032BF4D904F0D6FE04F0FEFE2F
:1004B000642002F00BFE304B3B6100237B760CE0A6
:1004C0007B7E294AD35CD7ED030A97ED040A1846D0
:1004D00004F05EFD7B7E01337B767B7E032BEFD9C0
:1004E00004F028FD40F6B83002F0F0FD00233B7622
:1004F00008E03B7E1E4A4FF4FA6142F823103B7E2F
:1005000001333B763B7E032BF3D904F0A5FE04F0C8
:10051000CDFE4FF4FA6002F0D9FD0023FB7507E031
:10052000FB7D134A002142F82310FB7D0133FB754C
:10053000FB7D032BF4D904F08FFE04F0B7FE64209A
:1005400002F0C4FD04F0B8FE04F044FD034803F0DB
:1005500003FBB86000237B60F8E700BF14020020B3
:10056000C00100200000204198000020A0000020D1
:10057000900300206666A63F3333134080B59CB0DD
:1005800000AF07F124034C22002118460AF044FB77
:100590003B1D2022002118460AF03EFB022002F0FB
:1005A000B9FC00233B602D4B9B692C4A23F440434C
:1005B00093612A4B9B6903F440433B603B6800BF57
:1005C000264B9B6903F40053B3F5005FF8D1292350
:1005D0007B624FF48033BB620123BB630123FB6367
:1005E0000223BB640223FB6401233B653C237B6540
:1005F0000123BB650423FB6502233B660C237B665A
:100600000023BB660023FB6607F12403184600F0B5
:100610006DFB0346002B01D000F04EF83F237B60BA
:100620000323BB600023FB6008233B6140237B6105
:100630004023BB614FF48063FB6140233B623B1D61
:100640000321184600F000FF0346002B01D000F004
:1006500033F800BF7037BD4680BD00BF0048025868
:1006600080B584B000AF3B4600221A605A609A60A1
:10067000DA6000F0BFFA01233B7000237B70002397
:100680007B601F233B7287237B720023BB72002396
:10069000FB7201233B7301237B730023BB73002395
:1006A000FB733B46184600F0DDFA042000F0BAFA6E
:1006B00000BF1037BD4680BD80B400AF72B600BF2A
:1006C000FEE7000080B485B000AF194BD3F8E030EE
:1006D000174A43F08003C2F8E030154BD3F8E030FE
:1006E00003F08003FB60FB68114BD3F8E030104A45
:1006F00043F00103C2F8E0300D4BD3F8E03003F0D3
:100700000103BB60BB680A4BD3F8E030084A43F0F2
:100710000803C2F8E030064BD3F8E03003F00803DA
:100720007B607B6800BF1437BD465DF8047B704773
:100730000044025880B400AFFEE780B400AFFEE78B
:1007400080B400AFFEE780B400AFFEE780B400AF36
:10075000FEE780B400AF00BFBD465DF8047B704784
:1007600080B400AF00BFBD465DF8047B704780B425
:1007700000AF00BFBD465DF8047B704780B500AF99
:1007800002F084FC00BF80BD80B500AF024803F0DA
:100790006FFA00BF80BD00BF1402002080B500AF1B
:1007A000024803F065FA00BF80BD00BF14020020BC
:1007B00080B500AF024805F02AFC00BF80BD00BF35
:1007C0007C18002080B584B000AF78603960334B6E
:1007D000334A4021786803F051F8314B1B68B3F578
:1007E000B06F41D92E4B1B68DBB2803BFB732B4BA8
:1007F0009B781B021AB2294B5B781BB213431BB2C6
:10080000BB81BB8946F26302934218D046F269026B
:1008100093423CD1214BDB791A06204B9B791B0478
:100820001A431E4B5B791B021A431C4B1B7919465A
:10083000FB7B013B0A431B4941F8232027E0174B70
:10084000DB791A06154B9B791B041A43134B5B7912
:100850001B021A43114B1B791946FB7B013B0A43D0
:10086000114941F8232012E00D4B1B68042B0ED9CF
:100870000B4B1B68082B0AD8094B1B68053BDB0098
:100880000A4A13440822054918460AF0B7F900231A
:10089000BB6000BF1037BD4680BD00BF0C0200200A
:1008A000E4010020CC020020DC020020EC02002049
:1008B00080B483B000AF0A4BD3F8F430084A43F059
:1008C0000203C2F8F430064BD3F8F43003F002030D
:1008D0007B607B6800BF0C37BD465DF8047B7047CA
:1008E0000044025880B400AF324BD3F88830314A0C
:1008F00043F47003C2F888302F4B1B6803F00F03DA
:10090000062B07D82C4B1B6823F00F032A4A43F011
:1009100007031360294B1B68284A43F00103136047
:10092000264B00221A61254B1A682449244B134098
:100930000B60214B1B6803F00803002B07D01E4BF4
:100940001B6823F00F031C4A43F0070313601B4B83
:1009500000229A61194B0022DA61184B00221A62B8
:10096000164B184A9A62154B174ADA62134B174A0C
:100970001A63124B00225A63104B144A9A630F4BAE
:100980000022DA630D4B114A1A640C4B00225A64A0
:100990000A4B1B68094A23F480231360074B00228B
:1009A0001A660B4B43F2D2021A6000BFBD465DF8D7
:1009B000047B704700ED00E0002000520044025824
:1009C0007FEDF6EA000202020000FF018002010151
:1009D0000040005280B485B000AF78607B6803F0BF
:1009E0000703FB600B4BDB68BB60BA684FF6FF0385
:1009F0001340BB60FB681A02BB681A43064B1343E3
:100A0000BB60044ABB68D36000BF1437BD465DF8C5
:100A1000047B704700ED00E00000FA0580B400AFF1
:100A2000044BDB681B0A03F007031846BD465DF85C
:100A3000047B704700ED00E080B483B000AF034654
:100A4000FB80B7F90630002B0BDBFB8803F01F029D
:100A50000749B7F906305B09012000FA02F241F8B4
:100A6000232000BF0C37BD465DF8047B704700BFF4
:100A700000E100E080B483B000AF03463960FB8042
:100A8000B7F90630002B0ADB3B68DAB20C49B7F93C
:100A900006301201D2B20B4483F800230AE03B680F
:100AA000DAB20849FB8803F00F03043B1201D2B20B
:100AB0000B441A7600BF0C37BD465DF8047B7047C7
:100AC00000E100E000ED00E080B489B000AFF86024
:100AD000B9607A60FB6803F00703FB61FB69C3F14F
:100AE0000703042B28BF0423BB61FB690433062BD7
:100AF00002D9FB69033B00E000237B614FF0FF322A
:100B0000BB6902FA03F3DA43BB681A407B699A4077
:100B10004FF0FF317B6901FA03F3D9437B680B4047
:100B2000134318462437BD465DF8047B7047000028
:100B300080B582B000AF78607B68013BB3F1807F05
:100B400001D301230FE00A4A7B68013B53600F2168
:100B50004FF0FF30FFF78EFF054B00229A60044BE9
:100B600007221A60002318460837BD4680BD00BF23
:100B700010E000E080B582B000AF78607868FFF7E1
:100B800029FF00BF0837BD4680BD80B586B000AFE5
:100B90000346B9607A60FB81FFF740FF78617A68AD
:100BA000B9687869FFF790FF0246B7F90E30114631
:100BB0001846FFF75FFF00BF1837BD4680BD80B500
:100BC00082B000AF0346FB80B7F906301846FFF746
:100BD00033FF00BF0837BD4680BD80B582B000AF8F
:100BE00078607868FFF7A4FF034618460837BD46CB
:100BF00080BD000080B400AFBFF35F8F00BF074B24
:100C00005B6A064A23F480335362054B00225A6024
:100C100000BFBD465DF8047B704700BF00ED00E0FB
:100C200090ED00E080B483B000AF78600B4A7B6841
:100C300043F0010353600A4B5B6A094A43F4803373
:100C40005362BFF34F8F00BFBFF36F8F00BF00BF72
:100C50000C37BD465DF8047B704700BF90ED00E0A7
:100C600000ED00E080B483B000AF78607B685A7814
:100C70001D4B9A607B681B78002B29D01A4A7B6831
:100C80005B68D3607B681B7B1A077B68DB7A1B067B
:100C90001A437B689B7ADB041A437B685B7B9B046B
:100CA0001A437B689B7B5B041A437B68DB7B1B04DA
:100CB0001A437B685B7A1B021A437B681B7A5B00D2
:100CC00013437A6812781146074A0B43136105E013
:100CD000054B0022DA60044B00221A6100BF0C377A
:100CE000BD465DF8047B704790ED00E080B58CB0A8
:100CF00000AF78607B68002B01D101239DE37B6806
:100D00001B6803F00103002B00F08780884B1B69F0
:100D100003F03803FB62864B9B6ABB62FB6A102BB5
:100D200007D0FB6A182B10D1BB6A03F00303022B18
:100D30000BD17F4B1B6803F40033002B6CD07B6816
:100D40005B68002B68D1012377E37B685B68B3F5B0
:100D5000803F06D1764B1B68754A43F4803313609D
:100D60002EE07B685B68002B0CD1714B1B68704ACE
:100D700023F4803313606E4B1B686D4A23F4802389
:100D800013601DE07B685B68B3F5A02F0CD1684B46
:100D90001B68674A43F480231360654B1B68644AF1
:100DA00043F4803313600BE0614B1B68604A23F40B
:100DB000803313605E4B1B685D4A23F4802313600D
:100DC0007B685B68002B13D002F074F9786208E04E
:100DD00002F070F902467B6AD31A642B01D903230F
:100DE0002BE3534B1B6803F40033002BF0D014E0CB
:100DF00002F060F9786208E002F05CF902467B6A72
:100E0000D31A642B01D9032317E3494B1B6803F45E
:100E10000033002BF0D100E000BF7B681B6803F0BB
:100E20000203002B00F08C80414B1B6903F0380358
:100E30003B623F4B9B6AFB613B6A002B07D03B6ADE
:100E4000182B37D1FB6903F00303002B32D1384B49
:100E50001B6803F00403002B05D07B68DB68002BC4
:100E600001D10123E9E2324B1B6823F019027B68B0
:100E7000DB682F4913430B6002F01CF9786208E02D
:100E800002F018F902467B6AD31A022B01D9032318
:100E9000D3E2274B1B6803F00403002BF0D0244B54
:100EA0005B6823F0FE427B681B691B0620491343E5
:100EB0004B6045E07B68DB68002B26D01C4B1B6831
:100EC00023F019027B68DB68194913430B6002F0B9
:100ED000F1F8786208E002F0EDF802467B6AD31A76
:100EE000022B01D90323A8E2114B1B6803F0040372
:100EF000002BF0D00E4B5B6823F0FE427B681B6931
:100F00001B060B4913434B601AE0094B1B68084A48
:100F100023F00103136002F0CDF878620AE002F0DA
:100F2000C9F802467B6AD31A022B03D9032384E251
:100F300000440258964B1B6803F00403002BEED1CB
:100F40007B681B6803F01003002B6AD0904B1B6971
:100F500003F03803BB618E4B9B6A7B61BB69082B36
:100F600007D0BB69182B1BD17B6903F00303012B4E
:100F700016D1874B1B6803F48073002B05D07B6868
:100F8000DB69802B01D0012357E2814BDB6823F022
:100F90007C527B681B6A1B067D491343CB6040E093
:100FA0007B68DB69002B23D0794B1B68784A43F0C0
:100FB0008003136002F07EF8786208E002F07AF8AD
:100FC00002467B6AD31A022B01D9032335E2704B08
:100FD0001B6803F48073002BF0D06D4BDB6823F0AB
:100FE0007C527B681B6A1B0669491343CB6018E07F
:100FF000674B1B68664A23F08003136002F05AF8BF
:10100000786208E002F056F802467B6AD31A022B97
:1010100001D9032311E25E4B1B6803F48073002B9C
:10102000F0D17B681B6803F00803002B36D07B6887
:101030005B69002B19D0564B5B6F554A43F0010397
:10104000536702F037F8786208E002F033F802469E
:101050007B6AD31A022B01D90323EEE14C4B5B6F61
:1010600003F00203002BF0D018E0494B5B6F484AB5
:1010700023F00103536702F01DF8786208E002F0E4
:1010800019F802467B6AD31A022B01D90323D4E153
:101090003F4B5B6F03F00203002BF0D17B681B68B2
:1010A00003F02003002B36D07B689B69002B19D0FE
:1010B000374B1B68364A43F48053136001F0FAFF44
:1010C000786208E001F0F6FF02467B6AD31A022B31
:1010D00001D90323B1E12E4B1B6803F40053002B0D
:1010E000F0D018E02A4B1B68294A23F48053136080
:1010F00001F0E0FF786208E001F0DCFF02467B6A65
:10110000D31A022B01D9032397E1214B1B6803F467
:101110000053002BF0D17B681B6803F00403002B05
:1011200000F086801B4B1B681A4A43F480731360DF
:1011300001F0C0FF786208E001F0BCFF02467B6A64
:10114000D31A642B01D9032377E1124B1B6803F4F4
:101150008073002BF0D07B689B68012B06D10C4B71
:101160001B6F0B4A43F00103136732E07B689B68F7
:10117000002B11D1064B1B6F054A23F001031367A7
:10118000034B1B6F024A23F00403136721E000BFE7
:1011900000440258004802587B689B68052B0CD11C
:1011A000834B1B6F824A43F004031367804B1B6F12
:1011B0007F4A43F0010313670BE07D4B1B6F7C4AB2
:1011C00023F0010313677A4B1B6F794A23F0040362
:1011D00013677B689B68002B15D001F06BFF78626A
:1011E0000AE001F067FF02467B6AD31A41F28832B7
:1011F000934201D9032320E16D4B1B6F03F00203DF
:10120000002BEED014E001F055FF78620AE001F007
:1012100051FF02467B6AD31A41F28832934201D9C8
:1012200003230AE1624B1B6F03F00203002BEED194
:101230007B685B6A002B00F0FF805D4B1B6903F04D
:101240003803182B00F0BA807B685B6A022B40F0F1
:101250009580574B1B68564A23F08073136001F04A
:1012600029FF786208E001F025FF02467B6AD31A65
:10127000022B01D90323E0E04D4B1B6803F0007300
:10128000002BF0D14A4B9A6A4A4B13407A68916A14
:101290007A68D26A12010A43454913438B627B681C
:1012A0001B6B013BC3F308027B685B6B013B5B027A
:1012B0009BB21A437B689B6B013B1B0403F4FE0348
:1012C0001A437B68DB6B013B1B0603F0FE43384986
:1012D00013430B63364BDB6A354A23F00103D362B9
:1012E000334B5A6B344B13407A68926CD2003049BE
:1012F00013434B632E4BDB6A23F00C027B681B6CA1
:101300002B491343CB622A4BDB6A23F002027B6832
:101310005B6C27491343CB62254BDB6A244A43F4B9
:101320008033D362224BDB6A214A43F40033D36219
:101330001F4BDB6A1E4A43F48023D3621C4BDB6ADB
:101340001B4A43F00103D362194B1B68184A43F050
:101350008073136001F0AEFE786208E001F0AAFE2F
:1013600002467B6AD31A022B01D9032365E0104B96
:101370001B6803F00073002BF0D05DE00C4B1B6882
:101380000B4A23F08073136001F094FE786208E04A
:1013900001F090FE02467B6AD31A022B01D9032387
:1013A0004BE0034B1B6803F00073002BF0D143E0CC
:1013B000004402580CFCFFFF0700FFFF214B9B6A13
:1013C0003B61204B1B6BFB607B685B6A012B31D060
:1013D0003B6903F003027B689B6A9A422AD13B690E
:1013E0001B0903F03F027B68DB6A9A4222D1FB684B
:1013F000C3F308027B681B6B013B9A421AD1FB685E
:101400005B0A03F07F027B685B6B013B9A4211D160
:10141000FB681B0C03F07F027B689B6B013B9A42CD
:1014200008D1FB681B0E03F07F027B68DB6B013B7E
:101430009A4201D0012300E0002318463037BD4610
:1014400080BD00BF0044025880B586B000AF786010
:1014500039607B68002B01D101239CE18A4B1B681A
:1014600003F00F033A689A4210D9874B1B6823F0A8
:101470000F0285493B6813430B60834B1B6803F0E5
:101480000F033A689A4201D0012384E17B681B680C
:1014900003F00403002B10D07B681A697B4B9B6917
:1014A00003F070039A4208D9784B9B6923F07002CD
:1014B0007B681B69754913438B617B681B6803F06C
:1014C0000803002B10D07B685A69704BDB6903F06E
:1014D00070039A4208D96D4BDB6923F070027B6878
:1014E0005B696A491343CB617B681B6803F0100397
:1014F000002B10D07B689A69644BDB6903F4E063CE
:101500009A4208D9614BDB6923F4E0627B689B69EE
:101510005E491343CB617B681B6803F02003002BFB
:1015200010D07B68DA69594B1B6A03F070039A424A
:1015300008D9564B1B6A23F070027B68DB6953495C
:1015400013430B627B681B6803F00203002B10D06F
:101550007B68DA684D4B9B6903F00F039A4208D908
:101560004A4B9B6923F00F027B68DB6847491343B2
:101570008B617B681B6803F00103002B55D0434B44
:101580009B6923F470627B689B68404913438B61BD
:101590007B685B68022B07D13C4B1B6803F400336C
:1015A000002B21D10123F6E07B685B68032B07D178
:1015B000364B1B6803F00073002B15D10123EAE0C2
:1015C0007B685B68012B07D1304B1B6803F4807389
:1015D000002B09D10123DEE02C4B1B6803F0040330
:1015E000002B01D10123D6E0284B1B6923F0070211
:1015F0007B685B68254913430B6101F05BFD7861F3
:101600000AE001F057FD02467B69D31A41F28832A5
:10161000934201D90323BEE01C4B1B6903F038023F
:101620007B685B68DB009A42EBD17B681B6803F048
:101630000203002B10D07B68DA68144B9B6903F01F
:101640000F039A4208D2114B9B6923F00F027B686B
:10165000DB680E4913438B610B4B1B6803F00F03D0
:101660003A689A4214D2084B1B6823F00F020649CD
:101670003B6813430B60044B1B6803F00F033A688D
:101680009A4205D0012386E000200052004402580F
:101690007B681B6803F00403002B10D07B681A6979
:1016A0003F4B9B6903F070039A4208D23C4B9B6905
:1016B00023F070027B681B69394913438B617B6897
:1016C0001B6803F00803002B10D07B685A69344B69
:1016D000DB6903F070039A4208D2314BDB6923F0D7
:1016E00070027B685B692E491343CB617B681B6882
:1016F00003F01003002B10D07B689A69284BDB693C
:1017000003F4E0639A4208D2254BDB6923F4E062DC
:101710007B689B6922491343CB617B681B6803F09C
:101720002003002B10D07B68DA691D4B1B6A03F085
:1017300070039A4208D21A4B1B6A23F070027B682E
:10174000DB69174913430B6200F034F80246144B6F
:101750009B691B0A03F00F031249CB5C03F01F03C4
:1017600022FA03F33B610E4B9B6903F00F030D4A12
:10177000D35C03F01F033A6922FA03F30A4A1360A9
:101780000A4A3B6913600A4B1B68184601F048FC83
:101790000346FB73FB7B18461837BD4680BD00BF70
:1017A00000440258D4AC00080400002000000020CF
:1017B0000800002080B489B000AFB34B1B6903F070
:1017C0003803182B00F2558101A252F823F000BF14
:1017D00035180008731A0008731A0008731A0008F5
:1017E000731A0008731A0008731A0008731A0008A5
:1017F0005B180008731A0008731A0008731A0008AF
:10180000731A0008731A0008731A0008731A000884
:1018100061180008731A0008731A0008731A000888
:10182000731A0008731A0008731A0008731A000864
:1018300067180008944B1B6803F02003002B09D0A5
:10184000914B1B68DB0803F00303904A22FA03F371
:10185000BB6111E18D4BBB610EE18D4BBB610BE1B7
:101860008C4BBB6108E1884B9B6A03F003037B61EF
:10187000854B9B6A1B0903F03F033B61824BDB6A8C
:1018800003F00103FB60804B5B6BDB08C3F30C03CD
:10189000FA6802FB03F307EE903AF8EE677AC7EDB9
:1018A000027A3B69002B00F0E1807B69022B00F09B
:1018B00083807B69022B00F2A1807B69002B03D01F
:1018C0007B69012B56D099E06F4B1B6803F0200316
:1018D000002B2DD06C4B1B68DB0803F003036B4A15
:1018E00022FA03F37B607B6807EE903AF8EE676AB2
:1018F0003B6907EE903AF8EE677A86EEA77A624B7C
:101900001B6BC3F3080307EE903AF8EE676A97ED96
:10191000026ADFED615AC6EE257A76EEA77AF7EE17
:10192000006A77EEA67A67EE277AC7ED077A87E036
:101930003B6907EE903AF8EE677ADFED586A86EE7B
:10194000A77A514B1B6BC3F3080307EE903AF8EEEE
:10195000676A97ED026ADFED505AC6EE257A76EE99
:10196000A77AF7EE006A77EEA67A67EE277AC7EDD8
:10197000077A65E03B6907EE903AF8EE677ADFEDAB
:10198000486A86EEA77A404B1B6BC3F3080307EE49
:10199000903AF8EE676A97ED026ADFED3F5AC6EEBD
:1019A000257A76EEA77AF7EE006A77EEA67A67EEEA
:1019B000277AC7ED077A43E03B6907EE903AF8EEE5
:1019C000677ADFED386A86EEA77A2F4B1B6BC3F37D
:1019D000080307EE903AF8EE676A97ED026ADFEDCA
:1019E0002E5AC6EE257A76EEA77AF7EE006A77EEE3
:1019F000A67A67EE277AC7ED077A21E03B6907EE02
:101A0000903AF8EE677ADFED266A86EEA77A1E4BEB
:101A10001B6BC3F3080307EE903AF8EE676A97ED85
:101A2000026ADFED1D5AC6EE257A76EEA77AF7EE4A
:101A3000006A77EEA67A67EE277AC7ED077A00BFCD
:101A4000114B1B6B5B0A03F07F0301333B603B6868
:101A500007EE903AB8EE677AD7ED076AC6EE877A56
:101A6000FCEEE77A17EE903ABB6105E00023BB611C
:101A700002E0074BBB6100BFBB6918462437BD4677
:101A80005DF8047B704700BF004402580090D0030B
:101A900000093D0000127A00000000460024744C4A
:101AA0000024744A0024F44A80B582B000AFFFF7E6
:101AB00081FE0246104B9B691B0A03F00F030F497E
:101AC000CB5C03F01F0322FA03F37B600A4B9B6994
:101AD00003F00F03094AD35C03F01F037A6822FA6C
:101AE00003F3074A1360074A7B681360044B1B68C3
:101AF00018460837BD4680BD00440258D4AC0008E3
:101B0000040000200000002080B586B000AF78609F
:101B10000023FB750023BB757B681B6803F0006323
:101B2000002B3FD07B681B6EB3F5401F2AD0B3F566
:101B3000401F24D8B3F5001F18D0B3F5001F1ED8DE
:101B4000002B03D0B3F5801F07D018E0A44BDB6A4D
:101B5000A34A43F40033D36215E07B6804330221C7
:101B6000184600F0CBFE0346FB750CE07B6824337F
:101B70000221184600F074FF0346FB7503E00123C1
:101B8000FB7500E000BFFB7D002B09D1944B1B6D62
:101B900023F440127B681B6E914913430B6501E0EF
:101BA000FB7DBB757B681B6803F48073002B3DD005
:101BB0007B685B6D042B26D801A252F823F000BF8E
:101BC000D51B0008E31B0008F51B00080D1C0008CE
:101BD0000D1C0008824BDB6A814A43F40033D36258
:101BE00015E07B6804330021184600F087FE0346A9
:101BF000FB750CE07B6824330021184600F030FFB1
:101C00000346FB7503E00123FB7500E000BFFB7D8D
:101C1000002B09D1724B1B6D23F007027B685B6DB3
:101C20006F4913430B6501E0FB7DBB757B681B6847
:101C300003F48063002B51D07B68D3F8A030B3F558
:101C4000200F36D0B3F5200F30D8B3F5000F32D0C7
:101C5000B3F5000F2AD8B3F5C00F2ED0B3F5C00FDF
:101C600024D8B3F5800F18D0B3F5800F1ED8002B01
:101C700003D0B3F5001F07D018E0594BDB6A584A70
:101C800043F40033D36219E07B6804330021184623
:101C900000F034FE0346FB7510E07B68243300211E
:101CA000184600F0DDFE0346FB7507E00123FB75D7
:101CB00004E000BF02E000BF00E000BFFB7D002B9E
:101CC0000AD1474B9B6D23F460027B68D3F8A030A8
:101CD000434913438B6501E0FB7DBB757B681B6843
:101CE00003F40063002B51D07B68D3F8A430B3F128
:101CF000A06F36D0B3F1A06F30D8B3F1806F32D07F
:101D0000B3F1806F2AD8B3F1407F2ED0B3F1407F7A
:101D100024D8B3F1007F18D0B3F1007F1ED8002B78
:101D200003D0B3F1807F07D018E02D4BDB6A2C4A3B
:101D300043F40033D36219E07B6804330021184672
:101D400000F0DCFD0346FB7510E07B6824330021C6
:101D5000184600F085FE0346FB7507E00123FB757E
:101D600004E000BF02E000BF00E000BFFB7D002BED
:101D70000AD11B4B9B6D23F0E0627B68D3F8A43043
:101D8000174913438B6501E0FB7DBB757B681B68BE
:101D900003F00073002B35D07B689B6C302B1CD07C
:101DA000302B17D8202B0CD0202B13D8002B19D078
:101DB000102B0FD10A4BDB6A094A43F40033D3627C
:101DC00011E07B6804330221184600F097FD0346BA
:101DD000FB7508E00123FB7505E000BF03E000BFD1
:101DE0000044025800BFFB7D002B09D1A34BDB6CE4
:101DF00023F030027B689B6CA0491343CB6401E065
:101E0000FB7DBB757B681B6803F48053002B47D0B8
:101E10007B689B6DB3F5804F30D0B3F5804F2AD8E7
:101E2000B3F5405F2CD0B3F5405F24D8B3F5005F25
:101E300018D0B3F5005F1ED8002B03D0B3F5805F38
:101E400007D018E08D4BDB6A8C4A43F40033D36231
:101E500017E07B6804330021184600F04FFD03466D
:101E6000FB750EE07B6824330021184600F0F8FD76
:101E70000346FB7505E00123FB7502E000BF00E0AF
:101E800000BFFB7D002B09D17C4B1B6D23F4E0428E
:101E90007B689B6D794913430B6501E0FB7DBB7546
:101EA0007B681B6803F40053002B49D07B68DB6D13
:101EB000B3F5A02F2ED0B3F5A02F28D8B3F5802FDF
:101EC0002AD0B3F5802F22D8B3F5403F26D0B3F502
:101ED000403F1CD8B3F5003F10D0B3F5003F16D8F3
:101EE000002B1DD0B3F5803F11D17B680433012155
:101EF000184600F003FD0346FB7512E07B682433AF
:101F00000121184600F0ACFD0346FB7509E00123F2
:101F1000FB7506E000BF04E000BF02E000BF00E088
:101F200000BFFB7D002B09D1544B1B6D23F4E02235
:101F30007B68DB6D514913430B6501E0FB7DBB758D
:101F40007B681B6803F48043002B4BD07B68D3F87D
:101F5000A830B3F1A04F2ED0B3F1A04F28D8B3F1E1
:101F6000804F2AD0B3F1804F22D8B3F1405F26D002
:101F7000B3F1405F1CD8B3F1005F10D0B3F1005F44
:101F800016D8002B1DD0B3F1805F11D17B680433CC
:101F90000121184600F0B2FC0346FB7512E07B6895
:101FA00024330121184600F05BFD0346FB7509E070
:101FB0000123FB7506E000BF04E000BF02E000BFA4
:101FC00000E000BFFB7D002B0AD12C4B9B6D23F062
:101FD000E0427B68D3F8A830284913438B6501E0C1
:101FE000FB7DBB757B681B6803F40043002B2FD07F
:101FF0007B689B6EB3F1005F0ED0B3F1005F14D825
:10200000002B15D0B3F1805F0FD11C4BDB6A1B4A4C
:1020100043F40033D3620CE07B680433012118469B
:1020200000F06CFC0346FB7503E00123FB7500E048
:1020300000BFFB7D002B09D1104B1B6D23F04052DC
:102040007B689B6E0D4913430B6501E0FB7DBB75FF
:102050007B681B6803F08073002B34D07B685B6C5B
:10206000032B1DD801A252F823F000BFA7200008BF
:10207000812000088F200008A72000080044025893
:10208000B14BDB6AB04A43F40033D3620CE07B68A7
:1020900004330221184600F031FC0346FB7503E0CF
:1020A0000123FB7500E000BFFB7D002B09D1A64B8F
:1020B000DB6C23F003027B685B6CA3491343CB64A6
:1020C00001E0FB7DBB757B681B6803F48003002B7C
:1020D00000F086809D4B1B689C4A43F4807313601C
:1020E00000F0E8FF386109E000F0E4FF02463B69D8
:1020F000D31A642B02D90323FB7505E0934B1B68AD
:1021000003F48073002BEFD0FB7D002B66D18E4B48
:102110001A6F7B68D3F8AC30534003F44073002B44
:1021200013D0894B1B6F23F44073FB60864B1B6FEE
:10213000854A43F480331367834B1B6F824A23F431
:1021400080331367804AFB6813677B68D3F8AC3031
:10215000B3F5807F15D100F0ADFF38610BE000F0E2
:10216000A9FF02463B69D31A41F28832934202D951
:102170000323FB7505E0744B1B6F03F00203002B78
:10218000EDD0FB7D002B26D17B68D3F8AC3003F477
:102190004073B3F5407F0DD16B4B1B6923F47C5228
:1021A0007B68D3F8AC301909694B0B40664913437F
:1021B0000B6105E0644B1B69634A23F47C53136194
:1021C000614B1A6F7B68D3F8AC30C3F30B035E49E5
:1021D00013430B6704E0FB7DBB7501E0FB7DBB7522
:1021E0007B681B6803F00103002B7ED07B685B6F6C
:1021F000282B67D801A252F823F000BFCB22000899
:10220000C5220008C5220008C5220008C522000812
:10221000C5220008C5220008C5220008A122000826
:10222000C5220008C5220008C5220008C5220008F2
:10223000C5220008C5220008C5220008B3220008F4
:10224000C5220008C5220008C5220008C5220008D2
:10225000C5220008C5220008C5220008CB220008BC
:10226000C5220008C5220008C5220008C5220008B2
:10227000C5220008C5220008C5220008CB2200089C
:10228000C5220008C5220008C5220008C522000892
:10229000C5220008C5220008C5220008CB2200087C
:1022A0007B6804330121184600F028FB0346FB75C8
:1022B0000CE07B6824330121184600F0D1FB034673
:1022C000FB7503E00123FB7500E000BFFB7D002BE5
:1022D00009D11D4B5B6D23F038027B685B6F1A4997
:1022E00013434B6501E0FB7DBB757B681B6803F006
:1022F0000203002B3ED07B681B6F052B20D801A268
:1023000052F823F0552300081D2300082F2300084E
:102310005523000855230008552300087B68043323
:102320000121184600F0EAFA0346FB7513E07B68CA
:1023300024330121184600F093FB0346FB750AE0A5
:102340000123FB7507E000BF004402580048025813
:10235000CFFFFF0000BFFB7D002B09D19F4B5B6DC2
:1023600023F007027B681B6F9C4913434B6501E018
:10237000FB7DBB757B681B6803F00403002B39D021
:102380007B68D3F88C30052B20D801A252F823F0BB
:10239000D3230008A9230008BB230008D323000887
:1023A000D3230008D32300087B6804330121184697
:1023B00000F0A4FA0346FB750CE07B68243301218E
:1023C000184600F04DFB0346FB7503E00123FB7547
:1023D00000E000BFFB7D002B0AD1804B9B6D23F0FA
:1023E00007027B68D3F88C307C4913438B6501E08E
:1023F000FB7DBB757B681B6803F02003002B4BD073
:102400007B68D3F88830B3F1A04F2ED0B3F1A04F42
:1024100028D8B3F1804F2AD0B3F1804F22D8B3F13E
:10242000405F26D0B3F1405F1CD8B3F1005F10D0FD
:10243000B3F1005F16D8002B1DD0B3F1805F11D12E
:102440007B6804330021184600F058FA0346FB75F8
:1024500012E07B6824330221184600F001FB03469A
:10246000FB7509E00123FB7506E000BF04E000BF37
:1024700002E000BF00E000BFFB7D002B0AD1574BFC
:102480005B6D23F0E0427B68D3F8883053491343F7
:102490004B6501E0FB7DBB757B681B6803F0400367
:1024A000002B4BD07B68D3F89430B3F5A05F2ED0CF
:1024B000B3F5A05F28D8B3F5805F2AD0B3F5805F6D
:1024C00022D8B3F5406F26D0B3F5406F1CD8B3F5D2
:1024D000006F10D0B3F5006F16D8002B1DD0B3F5E8
:1024E000806F11D17B6804330021184600F006FA92
:1024F0000346FB7512E07B6824330221184600F086
:10250000AFFA0346FB7509E00123FB7506E000BF47
:1025100004E000BF02E000BF00E000BFFB7D002B35
:102520000AD12E4B9B6D23F4E0527B68D3F8943094
:102530002A4913438B6501E0FB7DBB757B681B68F3
:1025400003F08003002B4DD07B68D3F89830B3F5AF
:10255000204F2ED0B3F5204F28D8B3F5004F2AD006
:10256000B3F5004F22D8B3F5C04F26D0B3F5C04F16
:102570001CD8B3F5804F10D0B3F5804F16D8002B80
:102580001DD0B3F5005F11D17B68043300211846DC
:1025900000F0B4F90346FB7512E07B682433022196
:1025A000184600F05DFA0346FB7509E00123FB7550
:1025B00006E000BF04E000BF02E000BF00E000BF93
:1025C000FB7D002B0CD1054B9B6D23F460427B6897
:1025D000D3F89830014913438B6503E00044025857
:1025E000FB7DBB757B681B6803F00803002B18D0CC
:1025F0007B68DB6FB3F5805F0AD17B6824330221EF
:10260000184600F02DFA0346002B01D00123BB75BC
:102610008A4B5B6D23F440527B68DB6F8749134321
:102620004B657B681B6803F01003002B1AD07B6896
:10263000D3F89030B3F5807F0AD17B682433022130
:10264000184600F00DFA0346002B01D00123BB759C
:102650007A4B9B6D23F440727B68D3F890307749B6
:1026600013438B657B681B6803F40023002B34D075
:102670007B68D3F89C30B3F5003F1DD0B3F5003F25
:1026800017D8002B03D0B3F5803F09D011E07B6849
:1026900004330021184600F031F90346FB750CE0C5
:1026A0007B6824330221184600F0DAF90346FB75F3
:1026B00003E00123FB7500E000BFFB7D002B0AD186
:1026C0005E4B9B6D23F440327B68D3F89C305B49B2
:1026D00013438B6501E0FB7DBB757B681B6803F4CE
:1026E0008023002B33D07B68D3F88030B3F5401FB4
:1026F0001CD0B3F5401F16D8B3F5801F03D0B3F537
:10270000001F07D00FE04D4BDB6A4C4A43F4003307
:10271000D3620CE07B6824330121184600F0A0F955
:102720000346FB7503E00123FB7500E000BFFB7D62
:10273000002B0AD1414B5B6D23F440127B68D3F828
:1027400080303E4913434B6501E0FB7DBB757B68E0
:102750001B6803F48033002B29D07B68DB6C002BD3
:1027600003D0B3F5803F07D00FE0344BDB6A334A28
:1027700043F40033D3620BE07B6804330221184634
:1027800000F0BCF80346FB7502E00123FB7500BFB7
:10279000FB7D002B09D1294BDB6C23F480327B6855
:1027A000DB6C26491343CB6401E0FB7DBB757B6882
:1027B0001B6803F00053002B0AD07B6824330221EE
:1027C000184600F04DF90346002B01D00123BB75DC
:1027D0007B681B6803F40033002B33D07B689B6F4E
:1027E000B3F5407F17D0B3F5407F11D8B3F5007F24
:1027F00013D0B3F5007F0BD8002B10D0B3F5807F3A
:1028000006D10E4BDB6A0D4A43F40033D36207E076
:102810000123FB7504E000BF02E000BF00E000BF41
:10282000FB7D002B0CD1054B5B6D23F440727B6864
:102830009B6F024913434B6504E000BF00440258FC
:10284000FB7DBB757B681B6803F48013002B08D0ED
:10285000294B1B6D23F000427B68DB6E2649134336
:102860000B657B681B6803F40013002B08D0224B18
:102870001B6D23F080727B685B6E1F4913430B65F1
:102880007B681B6803F08043002B0DD01A4B1B693B
:10289000194A23F400431361174B1A697B68D3F874
:1028A000B030154913430B617B681B68002B08DAB5
:1028B000114BDB6C23F040527B681B6D0E491343B8
:1028C000CB647B681B6803F40003002B09D00A4B20
:1028D0005B6D23F440027B68D3F8843006491343D0
:1028E0004B65BB7D002B01D1002300E0012318467E
:1028F0001837BD4680BD00BF0044025880B584B083
:1029000000AF786039600023FB73534B9B6A03F080
:102910000303032B01D1012399E04F4B1B684E4A5F
:1029200023F08063136000F0C5FBB86008E000F09E
:10293000C1FB0246BB68D31A022B01D9032386E0F0
:10294000454B1B6803F00063002BF0D1424B9B6AA0
:1029500023F47C327B681B681B033F4913438B6263
:102960007B685B68013BC3F308027B689B68013BA3
:102970005B029BB21A437B68DB68013B1B0403F4D8
:10298000FE031A437B681B69013B1B0603F0FE43F1
:10299000314913438B63304BDB6A23F0C0027B6801
:1029A0005B692D491343CB622B4BDB6A23F020027A
:1029B0007B689B6928491343CB62274BDB6A264A15
:1029C00023F01003D362244BDA6B244B13407A6854
:1029D000D269D20020491343CB631F4BDB6A1E4AE6
:1029E00043F01003D3623B68002B06D11A4BDB6A1D
:1029F000194A43F40023D3620FE03B68012B06D150
:102A0000154BDB6A144A43F48013D36205E0124B82
:102A1000DB6A114A43F40013D3620F4B1B680E4A62
:102A200043F08063136000F045FBB86008E000F0FD
:102A300041FB0246BB68D31A022B01D9032306E0EF
:102A4000054B1B6803F00063002BF0D0FB7B18469E
:102A50001037BD4680BD00BF004402580700FFFF8D
:102A600080B584B000AF786039600023FB73534BAE
:102A70009B6A03F00303032B01D1012399E04F4B21
:102A80001B684E4A23F08053136000F013FBB860BC
:102A900008E000F00FFB0246BB68D31A022B01D9F5
:102AA000032386E0454B1B6803F00053002BF0D155
:102AB000424B9B6A23F07C727B681B681B053F4975
:102AC00013438B627B685B68013BC3F308027B683E
:102AD0009B68013B5B029BB21A437B68DB68013B4E
:102AE0001B0403F4FE031A437B681B69013B1B06AE
:102AF00003F0FE43314913430B64304BDB6A23F48C
:102B000040627B685B692D491343CB622B4BDB6AC8
:102B100023F400727B689B6928491343CB62274BDF
:102B2000DB6A264A23F48073D362244B5A6C244B0D
:102B300013407A68D269D200204913434B641F4B7B
:102B4000DB6A1E4A43F48073D3623B68002B06D1D4
:102B50001A4BDB6A194A43F48003D3620FE03B68E7
:102B6000012B06D1154BDB6A144A43F40003D362F0
:102B700005E0124BDB6A114A43F08073D3620F4BBE
:102B80001B680E4A43F08053136000F093FAB8605C
:102B900008E000F08FFA0246BB68D31A022B01D975
:102BA000032306E0054B1B6803F00053002BF0D015
:102BB000FB7B18461037BD4680BD00BF004402585D
:102BC0000700FFFF80B489B000AF78603960002350
:102BD000FB61864B7B618CE13B681A680121FB69D4
:102BE00001FA03F313403B613B69002B00F07E8147
:102BF0003B685B6803F00303012B05D03B685B680F
:102C000003F00303022B30D17B689B68BB61FB6937
:102C10005B00032202FA03F3DB43BA691340BB6192
:102C20003B68DA68FB695B0002FA03F3BA69134395
:102C3000BB617B68BA699A607B685B68BB61012293
:102C4000FB6902FA03F3DB43BA691340BB613B68DB
:102C50005B681B0903F00102FB6902FA03F3BA691E
:102C60001343BB617B68BA695A603B685B6803F0D9
:102C70000303032B17D07B68DB68BB61FB695B0038
:102C8000032202FA03F3DB43BA691340BB613B68DA
:102C90009A68FB695B0002FA03F3BA691343BB61EC
:102CA0007B68BA69DA603B685B6803F00303022B58
:102CB00023D1FB69DA087B68083253F82230BB6104
:102CC000FB6903F007039B000F2202FA03F3DB43C7
:102CD000BA691340BB613B681A69FB6903F00703DB
:102CE0009B0002FA03F3BA691343BB61FB69DA087C
:102CF0007B680832B96943F822107B681B68BB61A6
:102D0000FB695B00032202FA03F3DB43BA69134059
:102D1000BB613B685B6803F00302FB695B0002FA7E
:102D200003F3BA691343BB617B68BA691A603B68F5
:102D30005B6803F44033002B00F0D8802C4BD3F8B1
:102D4000F4302B4A43F00203C2F8F430284BD3F896
:102D5000F43003F00203FB60FB68264AFB699B0822
:102D6000023352F82330BB61FB6903F003039B007D
:102D70000F2202FA03F3DB43BA691340BB617B689D
:102D80001D4A93424AD07B681C4A93422BD07B68F1
:102D90001B4A934225D07B681A4A93421FD07B6816
:102DA000194A934219D07B68184A934213D07B6822
:102DB000174A93420DD07B68164A934207D07B682E
:102DC000154A934201D1092329E00A2327E007236A
:102DD00025E0062323E0052321E004231FE003234D
:102DE0001DE002231BE0012319E000BF8000005812
:102DF0000044025800040058000002580004025821
:102E000000080258000C0258001002580014025822
:102E100000180258001C0258002402580023FA69C6
:102E200002F0030292009340BA691343BB61384930
:102E3000FB699B080233BA6941F823204FF0B04385
:102E40001B68BB613B69DB43BA691340BB613B68EC
:102E50005B6803F48013002B03D0BA693B6913430A
:102E6000BB614FF0B042BB6913604FF0B0435B6889
:102E7000BB613B69DB43BA691340BB613B685B687C
:102E800003F40013002B03D0BA693B691343BB6101
:102E90004FF0B042BB6953607B695B68BB613B69C3
:102EA000DB43BA691340BB613B685B6803F40033E2
:102EB000002B03D0BA693B691343BB617B69BA69D4
:102EC0005A607B691B68BB613B69DB43BA6913408D
:102ED000BB613B685B6803F48033002B03D0BA69A5
:102EE0003B691343BB617B69BA691A60FB690133B3
:102EF000FB613B681A68FB6922FA03F3002B7FF43D
:102F00006BAE00BF00BF2437BD465DF8047B704741
:102F10000004005880B584B000AF7860194BDB68BE
:102F200003F00403042B0AD0164BDB6803F00703FD
:102F30007A689A4201D001231FE000231DE0114B63
:102F4000DB6823F007020F497B681343CB6000F076
:102F5000B1F8F86009E000F0ADF80246FB68D31A5A
:102F6000B3F57A7F01D9012307E0064B5B6803F4D0
:102F70000053B3F5005FEED1002318461037BD466D
:102F800080BD00BF0048025880B400AF054BDB682D
:102F9000044A43F08073D36000BFBD465DF8047BF4
:102FA000704700BF0048025880B582B000AF0320D0
:102FB000FDF7E0FDFEF7FEFB0246154B9B691B0A81
:102FC00003F00F031349CB5C03F01F0322FA03F352
:102FD0007B600F4B9B6903F00F030E4AD35C03F039
:102FE0001F037A6822FA03F30B4A13600B4A7B68CB
:102FF00013600F2000F014F80346002B01D00123CA
:1030000002E0FDF755FC002318460837BD4680BD99
:1030100000440258D4AC0008040000200000002046
:1030200080B582B000AF7860154B1B78002B01D1C2
:10303000012321E0134B1A68114B1B7819464FF4FA
:103040007A73B3FBF1F3B2FBF3F31846FDF7C5FD5A
:103050000346002B01D001230EE07B680F2B0AD81A
:10306000002279684FF0FF30FDF78FFD064A7B683C
:103070001360002300E0012318460837BD4680BDD9
:103080000C000020000000200800002080B400AFE9
:10309000064B1B781A46064B1B681344044A136000
:1030A00000BFBD465DF8047B704700BF0C000020E8
:1030B000BC01002080B400AF034B1B681846BD461E
:1030C0005DF8047B704700BFBC01002080B584B070
:1030D00000AF7860FFF7EEFFB8607B68FB60FB68CD
:1030E000B3F1FF3F05D00A4B1B781A46FB68134427
:1030F000FB6000BFFFF7DEFF0246BB68D31AFA6829
:103100009A42F7D800BF00BF1037BD4680BD00BF50
:103110000C00002080B500AF2E4B2F4A1A602D4BBB
:1031200000229A602B4B0022DA602A4B01221A748B
:10313000284B00225A74274B00229A74254B0A22EE
:103140005A61244B01229A61224B0422DA61214BFD
:1031500007221A621F4B01225A621E4B01229A62F9
:103160001C4B0122DA621B4B01221A63194B00220D
:103170005A63184B01229A63164B0022DA63154BEF
:1031800010221A64134B04225A64124B10229A64C0
:10319000104B0422DA640F4B00221A650D4B0422F7
:1031A0005A650C4B00229A650A4B0022DA65094BDE
:1031B00010221A66074B00225A66064B04229A66B2
:1031C000044800F081F80346002B01D0FDF774FAA3
:1031D00000BF80BD1402002000A0004080B5B6B042
:1031E00000AF786007F1C40300221A605A609A6049
:1031F000DA601A6107F11003B4220021184607F0C3
:103200000BFD7B681B682D4A934252D14FF400435B
:103210003B614FF08053BB6707F110031846FEF780
:1032200073FC0346002B01D0FDF746FA244BD3F87C
:10323000EC30234A43F48073C2F8EC30204BD3F8CF
:10324000EC3003F48073FB60FB681D4BD3F8E03077
:103250001B4A43F00803C2F8E030194BD3F8E030C2
:1032600003F00803BB60BB680323C7F8C430022324
:10327000C7F8C8300023C7F8CC300023C7F8D030D7
:103280000923C7F8D43007F1C40319460D48FFF7E6
:1032900099FC002200211320FDF777FC1320FDF795
:1032A0008EFC002200211520FDF76FFC1520FDF794
:1032B00086FC00BFD837BD4680BD00BF00A00040DF
:1032C00000440258000C025880B598B000AF7860F6
:1032D000844A07F10C0311464C22184607F08EFC75
:1032E0007B68002B01D10123C6E17B681B687E4A05
:1032F000934206D17B681B6803F580731A467B688E
:103300005A607B6893F89830DBB2002B06D17B685B
:10331000002283F899207868FFF760FF7B681B68BC
:103320009A697B681B6822F010029A61FFF7C2FE5F
:10333000F86514E0FFF7BEFE0246FB6DD31A0A2BB8
:103340000DD97B68D3F89C3043F001027B68C3F849
:103350009C207B68032283F8982001238CE17B6802
:103360001B689B6903F00803082BE3D07B681B688C
:103370009A697B681B6842F001029A61FFF79AFE26
:10338000F86514E0FFF796FE0246FB6DD31A0A2B90
:103390000DD97B68D3F89C3043F001027B68C3F8F9
:1033A0009C207B68032283F89820012364E17B68DA
:1033B0001B689B6903F00103002BE3D07B681B684B
:1033C0009A697B681B6842F002029A617B681B7CE9
:1033D000012B08D17B681B689A697B681B6822F007
:1033E00040029A6107E07B681B689A697B681B68EA
:1033F00042F040029A617B685B7C012B08D17B68BC
:103400001B689A697B681B6842F480429A6107E0F6
:103410007B681B689A697B681B6822F480429A610A
:103420007B689B7C012B08D17B681B689A697B6851
:103430001B6822F480529A6107E07B681B689A69D6
:103440007B681B6842F480529A617B681B689B69A9
:1034500023F440717B689A687B681B680A439A6111
:103460007B681B689A697B681B6822F0A4029A61DA
:103470007B681B681A697B681B6822F010021A615E
:103480007B68DB68012B08D17B681B689A697B68C5
:103490001B6842F004029A6130E07B68DB68002B15
:1034A0002CD07B68DB68022B20D07B681B689A6974
:1034B0007B681B6842F080029A617B681B681A690E
:1034C0007B681B6842F010021A617B68DB68032B83
:1034D00014D17B681B689A697B681B6842F02002E4
:1034E0009A610BE040AC000800A000407B681B68BC
:1034F0009A697B681B6842F020029A617B689B692D
:10350000013B5A067B68DB69013B1B021A437B685F
:103510001B6A013B42EA03017B685B69013B1A04B9
:103520007B681B680A43DA617B689B68B3F5407F60
:1035300015D17B689B6A5A1E7B68DB6A013B1B02C4
:103540001A437B681B6B013B1B0142EA03017B684A
:103550005B6A013B1A047B681B680A43DA607B687C
:103560001B6E002B0AD07B681B68D3F8C0107B68E9
:103570005A6E7B681B680A43C3F8C0207B68DA6D0B
:103580007B681B6E1344002B11D07B681B68D3F83B
:10359000C83023F007017B689B6E9B0060333B447F
:1035A00053F8542C7B681B680A43C3F8C8207B6817
:1035B0001B6C002B11D07B681B68D3F8BC3023F048
:1035C00007017B685B6C9B0060333B4453F8542CD1
:1035D0007B681B680A43C3F8BC207B689B6C002B8C
:1035E00012D07B681B68D3F8BC3023F070017B6875
:1035F000DB6C9B0060333B4453F8543C1A017B68FE
:103600001B680A43C3F8BC207B681B6D002B12D0DB
:103610007B681B68D3F8BC3023F4E0617B685B6D8A
:103620009B0060333B4453F8543C1A027B681B6890
:103630000A43C3F8BC207B681B68114A934207D138
:103640007B685B689A687B685B6822F003029A601B
:103650007B680022C3F894207B680022C3F89C207A
:103660007B68012283F89820786800F00BFE0346FF
:1036700087F85B3097F85B3018466037BD4680BDF1
:1036800000A0004080B487B000AF786039607B68EC
:1036900093F89830FB73FB7B012B02D0FB7B022B52
:1036A00057D13B681B68002B2BD13B68DB68072B8D
:1036B0000DD13B681B691A043B68DB691B021A4386
:1036C0003B689B69134343F060537B610EE03B68AA
:1036D0009B689A073B68DB68DB061A433B681B69FB
:1036E0001B041A433B685B6913437B617B68DA6E9A
:1036F0003B685B689B001344BB60BB687A691A60D7
:1037000025E03B68DB685A073B681B6913437B6114
:103710003B68DB68072B03D13B689B693B6106E094
:103720003B689B689A073B685B6913433B617B6816
:103730001A6F3B685B68DB001344BB60BB687A6947
:103740001A60BB680433BB60BB683A691A60002327
:1037500008E07B68D3F89C3043F002027B68C3F832
:103760009C20012318461C37BD465DF8047B70473A
:1037700080B483B000AF78607B6893F89830DBB298
:10378000012B11D17B68022283F898207B681B688B
:103790009A697B681B6822F001029A617B680022AB
:1037A000C3F89C20002308E07B68D3F89C3043F0EA
:1037B00004027B68C3F89C20012318460C37BD46E1
:1037C0005DF8047B704780B586B000AFF860B960E3
:1037D0007A60FB6893F89830DBB2022B41D1FB682A
:1037E0001B68D3F8C03003F07C53002B09D1FB6871
:1037F000D3F89C3043F02002FB68C3F89C200123DF
:1038000038E0FB681B68D3F8C43003F40013002BC6
:1038100009D0FB68D3F89C3043F40072FB68C3F80E
:103820009C20012326E0FB681B68D3F8C4301B0CE6
:1038300003F01F037B617B697A68B968F86800F060
:10384000A7FEFB681B6801217A6901FA02F2C3F83E
:10385000D02001227B699A40FB68C3F894200023A2
:1038600008E0FB68D3F89C3043F00802FB68C3F81B
:103870009C20012318461837BD4680BD80B48BB00C
:1038800000AFF860B9607A603B600023FB61FB68C1
:1038900093F89830FB76FB7E022B40F04B81BB689F
:1038A000402B4DD1FB681B68D3F8A03003F4FE0316
:1038B000002B09D1FB68D3F89C3043F02002FB6851
:1038C000C3F89C2001233EE1FB681B68D3F8A430B9
:1038D00003F07F03002B09D1FB68D3F89C3043F43D
:1038E0008072FB68C3F89C2001232CE1FB681B68F5
:1038F000D3F8A4301B0E03F00103012B0BD1FB689E
:103900001B68D3F8A030DB0F03F00103B3F1004FC5
:1039100001D10123FB61FB681B68D3F8A4301B0AAB
:1039200003F03F03FA691344FB61FB685A6FFB68BD
:103930005B6CF96901FB03F39B0013447B6269E054
:10394000BB68412B4DD1FB681B68D3F8B03003F442
:10395000FE03002B09D1FB68D3F89C3043F0200212
:10396000FB68C3F89C200123EDE0FB681B68D3F8DB
:10397000B43003F07F03002B09D1FB68D3F89C30EF
:1039800043F48072FB68C3F89C200123DBE0FB68F2
:103990001B68D3F8B4301B0E03F00103012B0BD1CD
:1039A000FB681B68D3F8B030DB0F03F00103B3F101
:1039B000004F01D10123FB61FB681B68D3F8B430D1
:1039C0001B0A03F03F03FA691344FB61FB689A6F1B
:1039D000FB68DB6CF96901FB03F39B0013447B621A
:1039E00018E0FB681B6DBA689A4209D3FB68D3F8EC
:1039F0009C3043F02002FB68C3F89C200123A2E026
:103A0000FB68DA6FFB685B6DB96801FB03F39B0031
:103A100013447B627B6A1B6803F080427B685A60B8
:103A20007B685B68002B07D17B6A1B689B0CC3F328
:103A30000A027B681A6005E07B6A1B6823F060421B
:103A40007B681A607B6A1B6803F000527B689A608F
:103A50007B6A1B6803F000427B681A617B6A04334F
:103A60007B627B6A1B689AB27B68DA617B6A1B683F
:103A700003F470227B68DA607B6A1B6803F48012AF
:103A80007B685A617B6A1B6803F400127B689A6149
:103A90007B6A1B681B0E03F07F027B681A627B6ADD
:103AA0001B68DA0F7B685A627B6A04337B627B6A2D
:103AB0007B6100233B620AE07A693B6A1A443968F9
:103AC0003B6A0B4412781A703B6A01333B627B6895
:103AD000DB681B0C1F4AD35C1A463B6A9342EBD34C
:103AE000BB68402B05D1FB681B68FA69C3F8A820A6
:103AF0001EE0BB68412B05D1FB681B68FA69C3F85F
:103B0000B82015E0BB681F2B08D8FB681B68012193
:103B1000BA6801FA02F2C3F8982009E0BB6803F022
:103B20001F02FB681B68012101FA02F2C3F89C2006
:103B3000002308E0FB68D3F89C3043F00802FB68E0
:103B4000C3F89C20012318462C37BD465DF8047B42
:103B5000704700BFE4AC000880B485B000AF786067
:103B60007B681B68D3F8C43003F03F03FB60FB683D
:103B700018461437BD465DF8047B704780B487B0A3
:103B800000AFF860B9607A60FB6893F89830FB7515
:103B9000FB7D012B02D0FB7D022B55D1FB681B68FE
:103BA0009A6DBB681340002B08D1FB681B68DA6D67
:103BB000FB681B6842F00102DA6514E0FB681B68D1
:103BC0009A6DBB681340BA689A4208D1FB681B68BB
:103BD000DA6DFB681B6842F00202DA6503E0FB68FD
:103BE0001B680322DA65BB6803F40073002B09D05D
:103BF000FB681B68D3F8E010FB681B687A680A430F
:103C0000C3F8E020BB6803F48063002B09D0FB6895
:103C10001B68D3F8E410FB681B687A680A43C3F892
:103C2000E420FB681B68596DBA680F4B1340FA68B3
:103C300012680B4353650D4B5A69BB689B0F0B49C8
:103C400013434B61002308E0FB68D3F89C3043F03A
:103C50000202FB68C3F89C20012318461C37BD46AE
:103C60005DF8047B704700BFFFFFCF3F00A8004016
:103C700080B596B000AF78609A4B1B699B077B6557
:103C8000984B5B699B077A6D13407B657B681B686B
:103C90001B6D03F470433B657B681B685B6D3A6D7D
:103CA00013403B657B681B681B6D03F00F03FB64CF
:103CB0007B681B685B6DFA6C1340FB647B681B6858
:103CC0001B6D03F0F003BB647B681B685B6DBA6C13
:103CD0001340BB647B681B681B6D03F071537B64EE
:103CE0007B681B685B6D7A6C13407B647B681B6828
:103CF0001B6D03F060733B647B681B685B6D3A6C03
:103D000013403B647B681B685B6DFB637B681B68CF
:103D10001B6DBB63FB6B1B0A03F00103002B10D070
:103D2000BB6B1B0A03F00103002B0AD07B681B68E6
:103D30004FF480721A656B4B00221A61786800F0AC
:103D400054FAFB6B9B0A03F00103002B1DD0BB6BE5
:103D50009B0A03F00103002B17D07B681B68D3F884
:103D6000DC307B637B681B68D3F8E4307A6B1340EC
:103D70007B637B681B684FF480621A65594B002295
:103D80001A61796B786800F007FA7B6D002B0DD013
:103D90007B681A68796D544B0B401365514A7B6DF3
:103DA0009B0F1361796D786800F0C0F93B6D002BB3
:103DB0000DD07B681A68396D4B4B0B401365494A2F
:103DC0003B6D9B0F1361396D786800F0BAF9FB6C9D
:103DD000002B0DD07B681A68F96C434B0B401365C0
:103DE000404AFB6C9B0F1361F96C7868FCF7EAFCA6
:103DF000BB6C002B0DD07B681A68B96C3A4B0B403A
:103E00001365384ABB6C9B0F1361B96C786800F07E
:103E1000A3F9FB6BDB0A03F00103002B10D0BB6B93
:103E2000DB0A03F00103002B0AD07B681B684FF408
:103E300000621A652B4B00221A61786800F097F92E
:103E4000FB6B5B0A03F00103002B1DD0BB6B5B0A0D
:103E500003F00103002B17D07B681B68D3F8D83020
:103E60003B637B681B68D3F8E0303A6B13403B63DD
:103E70007B681B684FF400721A651A4B00221A61A6
:103E8000396B786800F07DF9FB6BDB0C03F0010304
:103E9000002B10D0BB6BDB0C03F00103002B0AD00E
:103EA0007B681B684FF400221A650E4B00221A61D2
:103EB000786800F07CF9FB6B1B0C03F00103002B0E
:103EC00016D0BB6B1B0C03F00103002B10D07B68DA
:103ED0001B684FF480321A65024B00221A61786821
:103EE00004E000BF00A80040FFFFCF3F00F069F9E9
:103EF000FB6B9B0C03F00103002B10D0BB6B9B0CE6
:103F000003F00103002B0AD07B681B684FF480226A
:103F10001A65834B00221A61786800F05CF9FB6B2C
:103F20005B0C03F00103002B15D0BB6B5B0C03F0A3
:103F30000103002B0FD07B681B684FF400321A6519
:103F4000774B00221A617B68D3F89C3043F08002E3
:103F50007B68C3F89C203B6C002B0DD07B681A68F3
:103F6000396C704B0B4013656D4A3B6C9B0F1361B2
:103F7000396C786800F04DF97B6C002B11D07B68B0
:103F80001A68796C674B0B401365654A7B6C9B0F15
:103F900013617B68D3F89C207B6C1A437B68C3F861
:103FA0009C207B681B68604A934240F0AC807B6831
:103FB0005B689B6803F00303002B00F0A4807B6820
:103FC0005B681B6A03F00F03FB627B685B685B6ADC
:103FD000FA6A1340FB627B685B681B6A03F030037C
:103FE000BB627B685B685B6ABA6A1340BB627B68D2
:103FF0005B681B6A03F4C0737B627B685B685B6A07
:104000007A6A13407B627B685B681B6A03F4FC433B
:104010003B627B685B685B6A3A6A13403B627B6821
:104020005B681B6A03F4F023FB617B685B685B6A77
:10403000FA691340FB617B685B685B6ABB617B6804
:104040005B681B6A7B61FB6A002B07D07B685B683F
:10405000FA6A1A62F96A786800F0E6F8BB6A002B1F
:1040600007D07B685B68BA6A1A62B96A786800F040
:10407000E6F8BB699B0903F00103002B1AD07B69AA
:104080009B0903F00103002B14D07B685B68DB6B9A
:104090001B0C9BB23B617B685B68DB6B03F03F03EF
:1040A000FB607B685B6840221A62FA68396978684D
:1040B00000F0D0F87B6A002B07D07B685B687A6AD7
:1040C0001A62796A786800F0D1F83B6A002B0BD04D
:1040D0007B685B683A6A1A627B68D3F89C203B6A0B
:1040E0001A437B68C3F89C20FB69002B0BD07B68CC
:1040F0005B68FA691A627B68D3F89C20FB691A43F3
:104100007B68C3F89C207B68D3F89C30002B02D0DE
:10411000786800F074F800BF5837BD4680BD00BF16
:1041200000A80040FFFFCF3F00A0004080B483B054
:1041300000AF7860396000BF0C37BD465DF8047B86
:10414000704780B483B000AF7860396000BF0C372F
:10415000BD465DF8047B704780B483B000AF7860E3
:10416000396000BF0C37BD465DF8047B704780B4F2
:1041700083B000AF786000BF0C37BD465DF8047BAC
:10418000704780B483B000AF7860396000BF0C37EF
:10419000BD465DF8047B704780B483B000AF7860A3
:1041A000396000BF0C37BD465DF8047B704780B4B2
:1041B00083B000AF786000BF0C37BD465DF8047B6C
:1041C000704780B483B000AF786000BF0C37BD4645
:1041D0005DF8047B704780B483B000AF786000BFA7
:1041E0000C37BD465DF8047B704780B483B000AFE8
:1041F000786000BF0C37BD465DF8047B704780B423
:1042000083B000AF786000BF0C37BD465DF8047B1B
:10421000704780B483B000AF7860396000BF0C375E
:10422000BD465DF8047B704780B483B000AF786012
:10423000396000BF0C37BD465DF8047B704780B421
:1042400083B000AF7860396000BF0C37BD465DF8C1
:10425000047B704780B485B000AFF860B9607A60C5
:1042600000BF1437BD465DF8047B704780B483B04F
:1042700000AF7860396000BF0C37BD465DF8047B45
:104280007047000080B485B000AF78607B685B6BDE
:10429000BB607B681B68D3F88420A74B1340BA68C7
:1042A00091007A6812680B43C2F884307B681B68FF
:1042B000D3F8843023F47F017B689B6B1A047B68FE
:1042C0001B680A43C3F884207B689B6BBA6813445D
:1042D000BB607B681B68D3F88820974B1340BA6893
:1042E00091007A6812680B43C2F888307B681B68BB
:1042F000D3F8883023F4FE017B68DB6B1A047B68FB
:104300001B680A43C3F888207B68DB6B5B00BA68D4
:104310001344BB607B681B68D3F8A020864B134016
:10432000BA6891007A6812680B43C2F8A0307B68C3
:104330001B68D3F8A03023F4FE017B681B6C1A04C1
:104340007B681B680A43C3F8A0207B681B6C7A68F3
:10435000526C02FB03F3BA681344BB607B681B68B2
:10436000D3F8B020744B1340BA6891007A68126891
:104370000B43C2F8B0307B681B68D3F8B03023F42D
:10438000FE017B689B6C1A047B681B680A43C3F8B8
:10439000B0207B689B6C7A68D26C02FB03F3BA682E
:1043A0001344BB607B681B68D3F8AC20624B13409E
:1043B000BA6891007A6812680B43C2F8AC307B6827
:1043C0001B6D7A68526D02FB03F3BA681344BB603D
:1043D0007B681B68D3F8F020574B1340BA689100F4
:1043E0007A6812680B43C2F8F0307B681B68D3F818
:1043F000F03023F47C117B689B6D1A047B681B688A
:104400000A43C3F8F0207B689B6D5B00BA681344D5
:10441000BB607B681B68D3F8C020474B1340BA6869
:1044200091007A6812680B43C2F8C0307B681B6841
:10443000D3F8C03023F47C117B68DB6D1A047B68F1
:104440001B680A43C3F8C0207B681B68D3F8C030E0
:1044500023F07C517B681B6E1A067B681B680A433D
:10446000C3F8C0207B685A6B344B13449A007B68B6
:10447000DA667B68DA6E7B689B6B9B001A447B680C
:104480001A677B681A6F7B68DB6BDB001A447B68FA
:104490005A677B685A6F7B681B6C7968496C01FBB3
:1044A00003F39B001A447B689A677B689A6F7B686A
:1044B0009B6C7968C96C01FB03F39B001A447B6811
:1044C000DA677B68DA6F7B681B6D7968496D01FB81
:1044D00003F39B001A447B68C3F880207B68D3F801
:1044E00080207B689B6DDB001A447B68C3F88420C6
:1044F0007B68D3F884207B68DB6D7968896E01FB6B
:1045000003F39B001A447B68C3F888207B68D3F8C8
:1045100088207B681B6E7968896E01FB03F39B0022
:104520001A447B68C3F890207B68D3F89030044A23
:10453000934215D906E000BF0300FFFF002B0010D7
:10454000FCD300407B68D3F89C3043F020027B68AA
:10455000C3F89C207B68032283F89820012310E095
:104560007B68DB6EFB6005E0FB6800221A60FB687D
:104570000433FB607B68D3F89030FA689A42F3D337
:10458000002318461437BD465DF8047B704700BF12
:1045900080B489B000AFF860B9607A603B60BB68F6
:1045A0005B68002B0AD1BB681A69BB689B681A4319
:1045B000BB681B689B041343FB610AE0BB681A6974
:1045C000BB689B681A43BB681B68134343F0804376
:1045D000FB61BB681B6A1A06BB68DB691A43BB68D0
:1045E0009B691A43BB685B691A43BB68DB6813436A
:1045F0003B61FB68D3F88420FB689B6E396801FB44
:1046000003F39B001344BB61BB69FA691A60BB6981
:104610000433BB61BB693A691A60BB690433BB618F
:1046200000237B6120E07B6903337A6813441B78A5
:104630001A067B69023379680B441B781B041A4302
:104640007B69013379680B441B781B02134379683B
:104650007A690A4412781A43BB691A60BB69043349
:10466000BB617B6904337B61BB68DB681B0C064A5A
:10467000D35C1A467B699342D5D300BF00BF243771
:10468000BD465DF8047B7047E4AC000880B58AB095
:1046900000AF78600023BB600023FB6002233B6116
:1046A00001237B610023BB610023FB6107F1080349
:1046B00019467868FEF7E6FF0346002B0CBF01237E
:1046C0000023DBB218462837BD4680BD80B582B0D6
:1046D00000AF0346FB80FB88054A1360054A044986
:1046E0000548FFF770F800BF18460837BD4680BD83
:1046F000C0010020B40200201402002080B582B066
:1047000000AF0346FB711D4B2B221A701B4B40223E
:104710005A701A4B60229A70184B0022DA70174BAD
:1047200006221A71154B00225A71144B00229A71FD
:10473000124B0022DA71FB799BB203F5C0639BB286
:104740001846FFF7C3FF0D4B07221A71FB799BB286
:1047500003F5C0639BB21846FFF7B8FF074B0F2263
:104760001A71FB799BB203F5C0639BB21846FFF741
:10477000ADFF00BF0837BD4680BD00BFB4020020BA
:1047800080B582B000AF0346FB71124B2B221A702A
:10479000104B40225A700F4B60229A700D4B002232
:1047A000DA700C4B07221A710A4B00225A71094B1E
:1047B00000229A71074B0022DA71FB799BB203F554
:1047C000C0639BB21846FFF781FF00BF0837BD46A4
:1047D00080BD00BFB402002080B582B000AF0346A8
:1047E000FB71124B2B221A70104B00225A700F4B88
:1047F00021229A700D4B0022DA700C4B01221A71A3
:104800000A4B00225A71094B00229A71074B002271
:10481000DA71FB799BB203F5C0639BB21846FFF7D0
:1048200055FF00BF0837BD4680BD00BFB402002061
:1048300080B582B000AF0346FB71124B2B221A7079
:10484000104B00225A700F4B31229A700D4B0022F0
:10485000DA700C4B01221A710A4B00225A71094B73
:1048600000229A71074B0022DA71FB799BB203F5A3
:10487000C0639BB21846FFF729FF00BF0837BD464B
:1048800080BD00BFB402002080B582B000AF0346F7
:10489000FB71124B2B221A70104B00225A700F4BD7
:1048A00021229A700D4B0022DA700C4B00221A71F3
:1048B0000A4B00225A71094B00229A71074B0022C1
:1048C000DA71FB799BB203F5C0639BB21846FFF720
:1048D000FDFE00BF0837BD4680BD00BFB40200200A
:1048E00080B582B000AF0346FB71124B2B221A70C9
:1048F000104B00225A700F4B31229A700D4B002240
:10490000DA700C4B00221A710A4B00225A71094BC3
:1049100000229A71074B0022DA71FB799BB203F5F2
:10492000C0639BB21846FFF7D1FE00BF0837BD46F3
:1049300080BD00BFB402002080B582B000AF034646
:104940000A46FB711346BB71124B2F221A70114B92
:1049500060225A700F4B60229A700E4B0022DA7060
:104960000C4ABB7913710B4B00225A71094B002280
:104970009A71084B0022DA71FB799BB203F5C06390
:104980009BB21846FFF7A2FE012318460837BD4622
:1049900080BD00BFB402002080B582B000AF0346E6
:1049A000FB71074B01221A70054AFB7953700020F6
:1049B000FFF78CFE012318460837BD4680BD00BFB7
:1049C000B402002090B583B000AF044608461146FB
:1049D0001A462346FB710346BB710B46BB80134648
:1049E000FB70184ABB791370BB88DAB2154B5A704A
:1049F000BB881B0A9BB2DAB2124B9A70114AFB7841
:104A0000D370BB69DAB20F4B1A71BB691B0ADAB2F9
:104A10000C4B5A71BB691B0CDAB20A4B9A71BB6919
:104A20001B0EDAB2074BDA71FB799BB203F5C06358
:104A30009BB21846FFF74AFE012318460C37BD46C5
:104A400090BD00BFB402002080B584B002AF034621
:104A5000FB71FB791846FFF79FFFFB79032118468E
:104A6000FFF76AFFFB79013B144A52F82330F879CB
:104A70000093002346F283022321FFF7A3FFFB7973
:104A8000013B0F4A52F82330F8790093002346F295
:104A900084022321FFF796FFFB79013B094A52F874
:104AA0002330F8790093002346F2FF022321FFF719
:104AB00089FF00BF0837BD4680BD00BF140000203D
:104AC00024000020BC02002080B584B002AF034661
:104AD0003960FB713B68F8790093002346F2FF02CE
:104AE0002321FFF76FFF00BF0837BD4680BD0000E0
:104AF00080B483B000AF03463960FB71FB79013BA2
:104B000004493A6841F8232000BF0C37BD465DF8E0
:104B1000047B7047BC02002080B582B000AF002348
:104B2000FB710DE0FB790A4AD25CFB79094951F827
:104B3000233019461046FFF7C7FFFB790133FB719D
:104B4000FB79032BEED900BF00BF0837BD4680BDFF
:104B500010000020BC02002080B485B000AF0346E6
:104B600087ED020AC7ED010AFB81FB8907EE903A47
:104B7000B8EE677AD7ED016AD7ED027A76EEE77A7A
:104B800067EE277AB7EEE77A9FED095B87EE056B54
:104B9000D7ED027AB7EEE77A36EE077BF7EEC77B02
:104BA000B0EE670A1437BD465DF8047B704700BF5E
:104BB00000000000E0FFEF4080B485B000AF034686
:104BC00087ED020AC7ED010AFB81FB8907EE903AE7
:104BD000B8EE677AD7ED016AD7ED027A76EEE77A1A
:104BE00067EE277AB7EEE77A9FED095B87EE056BF4
:104BF000D7ED027AB7EEE77A36EE077BF7EEC77BA2
:104C0000B0EE670A1437BD465DF8047B704700BFFD
:104C10000000000000FEAF4080B485B000AF87ED1B
:104C2000030AC7ED020A87ED011A97ED037AD7ED63
:104C3000027AB4EEE77AF1EE10FA01D5002326E00D
:104C400097ED037AD7ED017AB4EEE77AF1EE10FA38
:104C500001DDFF231BE097ED037AD7ED027A77EEB3
:104C6000677AB7EEE77A9FED0E6B27EE065B97ED5E
:104C7000017AD7ED027A77EE677AB7EEE76A85EECA
:104C8000067BFCEEC77BC7ED007A3B78DBB21846AB
:104C90001437BD465DF8047B704700BFAFF300805A
:104CA0000000000000E06F4080B485B000AF87EDE9
:104CB000030AC7ED020A87ED011A97ED037AD7EDD3
:104CC000027AB4EEE77AF1EE10FA01D5002326E07D
:104CD00097ED037AD7ED017AB4EEE77AF1EE10FAA8
:104CE00002DD4FF6FF731AE097ED037AD7ED027AF3
:104CF00077EE677AB7EEE77A9FED0D6B27EE065BEE
:104D000097ED017AD7ED027A77EE677AB7EEE76A28
:104D100085EE067BFCEEC77B17EE903A9BB21846F9
:104D20001437BD465DF8047B704700BFAFF30080C9
:104D300000000000E0FFEF4080B500AF3F4BD3ED37
:104D4000007A3F4B93ED007A3D4BD3ED016AB0EE14
:104D5000661AF0EE470AB0EE670AFFF75DFF0346FA
:104D60001A46384B1A70384BD3ED007A374B93ED17
:104D7000007A364BD3ED016AB0EE661AF0EE470AC0
:104D8000B0EE670AFFF748FF03461A46304B1A7029
:104D9000304BD3ED007A304B93ED007A2E4BD3EDB0
:104DA000016AB0EE661AF0EE470AB0EE670AFFF746
:104DB00033FF03461A46294B1A70294BD3ED007A6C
:104DC000284B93ED007A274BD3ED016AB0EE661ABB
:104DD000F0EE470AB0EE670AFFF71EFF03461A46D9
:104DE000214B1A70214BD3ED007A214B93ED007AC1
:104DF0001F4BD3ED016AB0EE661AF0EE470AB0EE33
:104E0000670AFFF709FF03461A461A4B1A700D4B43
:104E10001A78194BDA700E4B1A78174B1A710F4B20
:104E20001A78154B5A71104B1A78134B9A71114B13
:104E30001A78114BDA7100BF80BD00BF88000020D6
:104E400060000020880300208C0000206800002003
:104E50008903002090000020700000208A030020B9
:104E600084030020780000208C03002094000020A0
:104E7000800000208B0300205C03002080B582B0FE
:104E800000AF03463960FB80FB88054A13603A682F
:104E900003490448FEF797FC00BF0837BD4680BDB4
:104EA000C00100201402002080B586B000AF034688
:104EB00087ED020AC7ED010AFB731B4BD3ED007AA5
:104EC000194B93ED017AB0EE471AF0EE670A97EDB1
:104ED000020AFFF7E9FE0346FB82144BD3ED007A8A
:104EE000124B93ED017AB0EE471AF0EE670A97ED98
:104EF000010AFFF791FE03467B75FB8A1B0A9BB2F2
:104F0000DAB20B4B1A70FB8ADAB2094B5A70084AB4
:104F10007B7D9370FB7B9BB205491846FFF7AEFF84
:104F200000BF1837BD4680BD48000020500000205B
:104F30005C03002080B582B000AF0023FB7118E055
:104F4000FB79104AD25CFB790F499B000B44D3EDEF
:104F5000007AFB790D499B000B4493ED007AF0EE4B
:104F6000470AB0EE670A1046FFF79EFFFB79013350
:104F7000FB71FB79032BE3D900BF00BF0837BD46A7
:104F800080BD00BF440000206403002074030020A3
:104F900080B485B000AF034687ED020AC7ED010A71
:104FA000FB73FB7B053B094A9B001344BA681A60FC
:104FB000FB7B053B064A9B0013447A681A6000BFDE
:104FC0001437BD465DF8047B704700BF64030020C2
:104FD0007403002090B583B000AF0023FB71ADE0F7
:104FE000FB79FA795A49DB000B4498795949134601
:104FF0009B0013449B000B44103302461A70FB794C
:10500000FA795349DB000B44D879524913469B0087
:1050100013449B000B44113302461A70FB79FA7952
:105020004B4911F833004B4913469B0013449B0036
:105030000B4402461A70FB79454ADB0013445B7847
:105040001B021AB2FB794249DB000B449B781BB26E
:1050500013431BB29BB2404AD2ED007A3E4A92ED16
:10506000017AFC79F0EE470AB0EE670A1846FFF7BE
:1050700073FDF0EE407A374A23469B0023449B00A1
:1050800013440433C3ED007AFB79314ADB00134447
:10509000DB781B011AB2FB792D49DB000B441B792D
:1050A0001B09DBB21BB213431BB29BB22B4AD2EDDE
:1050B000007A2A4A92ED017AFC79F0EE470AB0EEC6
:1050C000670A1846FFF778FDF0EE407A214A23463A
:1050D0009B0023449B0013440833C3ED007AFB7903
:1050E0001B4ADB0013441B791B021BB203F47063E1
:1050F0001AB2FB791649DB000B445B791BB21343F0
:105100001BB29BB2164AD2ED007A154A92ED017A93
:10511000FC79F0EE470AB0EE670A1846FFF74CFD3F
:10512000F0EE407A0B4A23469B0023449B00134435
:105130000C33C3ED007AFB790133FB71FB79032B50
:105140007FF64EAF00BF00BF0C37BD4690BD00BF1D
:10515000EC0200200C03002048000020500000203A
:105160005800002080B582B000AF0346FB71FB7988
:105170009BB204491846FFF781FE00BF0837BD46C1
:1051800080BD00BF3400002080B582B000AF034670
:10519000FB71FB799BB204491846FFF76FFE00BF15
:1051A0000837BD4680BD00BF3C00002080B582B0FE
:1051B00000AF0320FFF710FB0420FFF739FB0120AD
:1051C000FFF70AFB0220FFF733FB6420FDF77EFFA9
:1051D0000023FB7108E0FB791D4AD35C1846FFF7FA
:1051E00033FCFB790133FB71FB79032BF3D964208A
:1051F000FDF76CFF0023BB7108E0BB79144AD35C58
:105200001846FFF77BFABB790133BB71BB79032BDF
:10521000F3D96420FDF75AFFFFF78EFD00237B7161
:105220000EE07B790B4AD35C1846FFF79BFF7B7936
:10523000084AD35C1846FFF7A7FF7B7901337B71DF
:105240007B79032BEDD900BF00BF0837BD4680BD79
:105250009C0000209800002080B500AF114B1B7807
:10526000114A126811461846FFF742FC0D4B5A7856
:105270000D4B5B685B4219461046FFF739FC094B42
:105280009B78094A926811461846FFF731FC054B96
:10529000DA78054BDB685B4219461046FFF728FCBD
:1052A00000BF80BD9C0000209003002080B500AFAF
:1052B000FFF732FC00BF80BD80B582B000AF322066
:1052C000FDF704FF0023FB7108E0FB79174AD35C6C
:1052D0001846FFF755FAFB790133FB71FB79032B75
:1052E000F3D90320FFF7D0FA0420FFF7F9FA0120E1
:1052F000FFF7CAFA0220FFF7F3FA3220FDF7E6FEC5
:105300000023BB7108E0BB79094AD35C1846FFF75C
:1053100029FFBB790133BB71BB79032BF3D9322051
:10532000FDF7D4FE00BF0837BD4680BD9C000020BD
:105330009800002080B500AF01221349134803F004
:1053400047FC0346002B01D0FBF7B6F910490F4884
:1053500003F06EFC0346002B01D0FBF7ADF90D49BD
:105360000A4805F027FB0346002B01D0FBF7A4F900
:10537000064803F093FC0346002B01D0FBF79CF991
:10538000FDF702FE00BF80BDB0000020A00300209A
:10539000200100200001002080B483B000AF03464C
:1053A0003960FB713B6812221A80034B18460C3798
:1053B000BD465DF8047B7047CC00002080B483B00C
:1053C00000AF03463960FB713B6804221A80034B2F
:1053D00018460C37BD465DF8047B7047E00000209E
:1053E00080B582B000AF03463960FB71FB79002BBA
:1053F00005D13A680749084804F0FCFD04E03A6822
:105400000449054804F0F6FD024B18460837BD462E
:1054100080BD00BF7C0600208CAC000880B582B047
:1054200000AF03463960FB713A680449044804F050
:10543000E1FD024B18460837BD4680BD7C060020C2
:10544000A4AC000880B582B000AF03463960FB71A0
:105450003B681A221A8000F043F8024B18460837BE
:10546000BD4680BDE400002080B582B000AF034699
:105470003960FB71FB79002B05D13A680749084870
:1054800004F0B8FD04E03A680449054804F0B2FDB0
:10549000024B18460837BD4680BD00BF7C06002081
:1054A000B8AC000880B582B000AF03463960FB712C
:1054B000FB79002B05D13A680749084804F09AFDAA
:1054C00004E03A680449054804F094FD024B18468C
:1054D0000837BD4680BD00BF7C060020C4AC000874
:1054E00080B584B000AF0F4B1B68FB600E4B1B6890
:1054F000BB600E4B1B687B60FA687B681344FB60E3
:10550000FB68002B09D008220949F86800F014F85C
:1055100004220849B86800F00FF800BF1037BD46F4
:1055200080BD00BF00E8F11F04E8F11F08E8F11F8B
:10553000E6000020F600002080B487B000AFF860DD
:10554000B9601346FB710023FB750023FB7527E050
:10555000FB681B0F092B0BD8FB681B0FDAB2FB7D16
:105560005B001946BB680B443032D2B21A700AE0B5
:10557000FB681B0FDAB2FB7D5B001946BB680B446E
:105580003732D2B21A70FB681B01FB60FB7D5B00F7
:105590000133BA68134400221A70FB7D0133FB7596
:1055A000FA7DFB799A42D3D300BF00BF1C37BD46BA
:1055B0005DF8047B7047000080B500AF002205490C
:1055C000054805F011FA0549034805F02FFA0023B4
:1055D000184680BD7C100020A00300207C0800201D
:1055E00080B400AF00231846BD465DF8047B7047C9
:1055F00080B483B000AF03463960FB711346BB80B3
:10560000FB79232B4AD801A252F823F09D560008BB
:105610009D5600089D5600089D5600089D5600089E
:105620009D5600089D5600089D5600089D5600088E
:105630009D5600089D5600089D5600089D5600087E
:105640009D5600089D5600089D5600089D5600086E
:105650009D5600089D5600089D5600089D5600085E
:105660009D5600089D5600089D5600089D5600084E
:105670009D5600089D5600089D5600089D5600083E
:105680009D5600089D5600089D5600089D5600082E
:105690009D5600089D5600089D56000800BF002337
:1056A00018460C37BD465DF8047B704780B582B064
:1056B00000AF786039603B681B689BB21946786818
:1056C00000F00EF87968054805F0B0F9034805F0D8
:1056D00011FA002318460837BD4680BDA0030020FC
:1056E00080B584B000AF78600B467B800023FB73ED
:1056F0000D4BD3F8BC32BB60BB68D3F81432002B1F
:1057000001D001230BE07B881A467968064805F032
:105710006BF9054805F0A8F90346FB73FB7B1846B7
:105720001037BD4680BD00BFA003002080B487B005
:1057300000AFF860B9601346FB710023FB7597F961
:10574000173018461C37BD465DF8047B70470000D3
:1057500080B5B0B000AF786007F10C03B42200212F
:10576000184605F059FA7B681B68184A934229D1FC
:105770004FF48023FB604FF44013C7F88C3007F1DF
:105780000C031846FCF7C0F90346002B01D0FAF7CA
:1057900093FFFDF7F9FB0E4BD3F8D8300C4A43F0DA
:1057A0000073C2F8D8300A4BD3F8D83003F0007336
:1057B000BB60BB68002200214D20FBF7E6F94D20BD
:1057C000FBF7FDF900BFC037BD4680BD00000440B7
:1057D0000044025880B582B000AF78607B68D3F88F
:1057E00008257B6803F2C4431946104603F0A3FA68
:1057F00000BF0837BD4680BD80B582B000AF78607D
:105800000B46FB707B68D3F80805FA787968134675
:10581000DB0013449B000B4403F523731A68FB78E9
:10582000194603F0DDFA00BF0837BD4680BD80B5DC
:1058300082B000AF78600B46FB707B68D3F8080538
:10584000FA7879681346DB0013449B000B444C3311
:105850001A68FB78194603F076FB00BF0837BD468F
:1058600080BD80B582B000AF78607B68D3F8083522
:10587000184603F0AAFC00BF0837BD4680BD80B5BE
:1058800084B000AF78600123FB737B68DB68002B7A
:1058900002D10023FB7308E07B68DB68022B02D196
:1058A0000123FB7301E0FAF707FF7B68D3F80835A3
:1058B000FA7B1146184603F04AFC7B68D3F808359A
:1058C000184603F0F2FB00BF1037BD4680BD000054
:1058D00080B582B000AF78607B68D3F80835184691
:1058E00003F045FC7B681B6803F560631B687A68FE
:1058F000126802F5606243F0010313607B681B6A63
:10590000002B05D0044B1B69034A43F006031361C7
:1059100000BF0837BD4680BD00ED00E080B582B015
:1059200000AF78607B68D3F80835184603F035FC83
:1059300000BF0837BD4680BD80B582B000AF78603B
:105940000B46FB707B68D3F80835FA781146184689
:1059500003F08DFC00BF0837BD4680BD80B582B026
:1059600000AF78600B46FB707B68D3F80835FA7897
:105970001146184603F049FC00BF0837BD4680BDFC
:1059800080B582B000AF78607B68D3F808351846E0
:1059900003F09FFC00BF0837BD4680BD80B582B0D4
:1059A00000AF78607B68D3F80835184603F09CFC9C
:1059B00000BF0837BD4680BD80B582B000AF7860BB
:1059C0007B681B78012B40D1224A7B68C2F80835DE
:1059D0007B68204AC3F8C8221E4B1F4A1A601D4B21
:1059E00009225A601B4B0222DA601A4B00221A610C
:1059F000184B02229A61174B0022DA61154B0022E4
:105A00001A62144B00225A62124B0022DA62114BC6
:105A100000221A630F4B00225A630E4800F0A0F9CF
:105A20000346002B01D0FAF747FE4FF400710948F6
:105A300001F02BFC80220021064801F0DFFB4FF42F
:105A4000BA720121034801F0D9FB00231846083738
:105A5000BD4680BD7C1800200000044080B584B0A5
:105A600000AF78600023FB730023BB737B68D3F81F
:105A7000C832184600F098FA0346FB73FB7B1846C1
:105A800000F042F90346BB73BB7B18461037BD4696
:105A900080BD80B584B000AF7860084611461A46D4
:105AA0000346FB700B46BB7013463B800023FB7321
:105AB0000023BB737B68D3F8C802BB783A88F978B7
:105AC00000F096FF0346FB73FB7B184600F01CF9C1
:105AD0000346BB73BB7B18461037BD4680BD80B5FF
