:020000040800F2
:1000000000000220691401085D0800086308000868
:10001000690800086F080008750800080000000063
:100020000000000000000000000000007B08000845
:10003000890800080000000097080008A5080008CB
:10004000B9140108B9140108B9140108B914010858
:10005000B9140108B9140108B9140108B914010848
:10006000B9140108B9140108B9140108B10800084D
:10007000B9140108B9140108B9140108B914010828
:10008000B9140108B9140108B9140108C508000819
:10009000B9140108D9080008B9140108B9140108F5
:1000A000B9140108ED080008B9140108B9140108D1
:1000B000B9140108B9140108B9140108B9140108E8
:1000C000B9140108B9140108B9140108B9140108D8
:1000D000B9140108B914010801090008B91401088C
:1000E000B9140108B914010800000000B91401088E
:1000F000B9140108B9140108B9140108B9140108A8
:10010000B9140108B9140108B9140108B914010897
:10011000B9140108B9140108B9140108B914010887
:10012000B9140108B9140108B9140108B914010877
:10013000B9140108B9140108B9140108B914010867
:1001400000000000000000000000000000000000AF
:10015000B9140108B9140108B9140108B914010847
:10016000B9140108B9140108B9140108B914010837
:10017000B914010815090008B914010800000000AD
:10018000B9140108B9140108B9140108B914010817
:10019000B9140108B9140108B9140108B914010807
:1001A000B9140108B9140108B914010800000000CD
:1001B000B9140108B9140108B9140108B9140108E7
:1001C000B9140108B9140108000000000000000083
:1001D0000000000000000000B91401080000000049
:1001E000000000000000000000000000000000000F
:1001F0000000000000000000B9140108B914010853
:10020000B9140108B914010800000000B91401086C
:10021000B9140108B9140108B9140108B914010886
:10022000B914010800000000B91401080000000022
:10023000B9140108B914010800000000B91401083C
:10024000B9140108B9140108B9140108B914010856
:10025000B9140108B9140108B9140108B914010846
:10026000B9140108B9140108B9140108B914010836
:10027000B9140108B9140108B914010800000000FC
:10028000B9140108B9140108B9140108B914010816
:1002900000000000B9140108B914010800000000B2
:1002A00000000000B9140108B9140108B9140108CC
:1002B000B9140108B9140108B9140108B9140108E6
:0C02C000B9140108B9140108B9140108B0
:1002D00010B5054C237833B9044B13B10448AFF380
:1002E00000800123237010BDF401002000000000F5
:1002F0009027010808B5034B1BB103490348AFF32E
:10030000008008BD00000000F801002090270108CF
:1003100053B94AB9002908BF00281CBF4FF0FF316C
:100320004FF0FF3000F074B9ADF1080C6DE904CE68
:1003300000F006F8DDF804E0DDE9022304B07047C0
:100340002DE9F047089D04468E46002B4DD18A4288
:10035000944669D9B2FA82F252B101FA02F3C2F1BB
:10036000200120FA01F10CFA02FC41EA030E94404C
:100370004FEA1C48210CBEFBF8F61FFA8CF708FB6D
:1003800016E341EA034306FB07F199420AD91CEB45
:10039000030306F1FF3080F01F81994240F21C8177
:1003A000023E63445B1AA4B2B3FBF8F008FB1033BF
:1003B00044EA034400FB07F7A7420AD91CEB0404F4
:1003C00000F1FF3380F00A81A74240F207816444C4
:1003D000023840EA0640E41B00261DB1D440002349
:1003E000C5E900433146BDE8F0878B4209D9002DAD
:1003F00000F0EF800026C5E9000130463146BDE837
:10040000F087B3FA83F6002E4AD18B4202D38242A0
:1004100000F2F980841A61EB030301209E46002D4F
:10042000E0D0C5E9004EDDE702B9FFDEB2FA82F2A4
:10043000002A40F09280A1EB0C014FEA1C471FFA02
:100440008CFE0126200CB1FBF7F307FB131140EAE9
:1004500001410EFB03F0884208D91CEB010103F1B6
:10046000FF3802D2884200F2CB804346091AA4B278
:10047000B1FBF7F007FB101144EA01440EFB00FE4C
:10048000A64508D91CEB040400F1FF3102D2A645B1
:1004900000F2BB800846A4EB0E0440EA03409CE750
:1004A000C6F12007B34022FA07FC4CEA030C20FAFD
:1004B00007F401FA06F31C43F9404FEA1C4900FA1D
:1004C00006F3B1FBF9F8200C1FFA8CFE09FB18119A
:1004D00040EA014108FB0EF0884202FA06F20BD90D
:1004E0001CEB010108F1FF3A80F08880884240F25D
:1004F0008580A8F102086144091AA4B2B1FBF9F0A1
:1005000009FB101144EA014100FB0EFE8E4508D99B
:100510001CEB010100F1FF346CD28E456AD9023820
:10052000614440EA0840A0FB0294A1EB0E01A14205
:10053000C846A64656D353D05DB1B3EB080261EB73
:100540000E0101FA07F722FA06F3F1401F43C5E94D
:10055000007100263146BDE8F087C2F12003D84083
:100560000CFA02FC21FA03F3914001434FEA1C47C5
:100570001FFA8CFEB3FBF7F007FB10360B0C43EAB7
:10058000064300FB0EF69E4204FA02F408D91CEB67
:10059000030300F1FF382FD29E422DD90238634465
:1005A0009B1B89B2B3FBF7F607FB163341EA034105
:1005B00006FB0EF38B4208D91CEB010106F1FF3854
:1005C00016D28B4214D9023E6144C91A46EA00464B
:1005D00038E72E46284605E70646E3E61846F8E6DD
:1005E0004B45A9D2B9EB020864EB0C0E0138A3E726
:1005F0004646EAE7204694E74046D1E7D0467BE707
:10060000023B614432E7304609E76444023842E77E
:10061000704700BF80B584B000AF05F023FF00F045
:100620006DF800F0E3F806F0EFFC08F03DFA0DF08D
:1006300051FE10F0F9FE0DF0C9FE294807F08EFFBB
:100640000346FB7300BF264807F00CF80346002B57
:10065000F9D100220121224807F0F8F9214806F0DB
:100660000FF80622204921480EF080F8204B40F276
:1006700001121A601E4B00225A601D4B00229A6024
:100680001B4B4FF40022DA60194B00225A61184BC1
:1006900000229A61164B0022DA61164A3B1D92E84D
:1006A000030018600433197007F1090300221A606F
:1006B0001A713B1D0421184608F0CCFB4FF4FA6078
:1006C00005F062FF0C4B1B78002B00D1F1E700BF57
:1006D00008F07EF8002318461037BD4680BD00BFE5
:1006E0006C02002008200020B401002054200020CB
:1006F00018020020A82701081102002080B59CB034
:1007000000AF07F124034C220021184610F008FF27
:100710003B1D20220021184610F002FF022005F0A8
:1007200057FE00233B602D4B9B692C4A23F440432A
:1007300093612A4B9B6903F440433B603B6800BFD5
:10074000264B9B6903F40053B3F5005FF8D12923CE
:100750007B624FF48033BB620123BB630123FB63E5
:100760000223BB640223FB6401233B653C237B65BE
:100770000123BB650423FB6502233B660C237B66D8
:100780000023BB660023FB6607F12403184600F034
:10079000DBFB0346002B01D000F022F83F237B60F7
:1007A0000323BB600023FB6008233B6140237B6184
:1007B0004023BB614FF48063FB6140233B623B1DE0
:1007C0000321184600F06EFF0346002B01D000F015
:1007D00007F800BF7037BD4680BD00BF0048025813
:1007E00080B400AF72B600BFFEE7000080B485B0F1
:1007F00000AF194BD3F8E030174A43F08003C2F83A
:10080000E030154BD3F8E03003F08003FB60FB6869
:10081000114BD3F8E030104A43F00103C2F8E03046
:100820000D4BD3F8E03003F00103BB60BB680A4B0B
:10083000D3F8E030084A43F00803C2F8E030064B32
:10084000D3F8E03003F008037B607B6800BF143707
:10085000BD465DF8047B70470044025880B400AF89
:10086000FEE780B400AFFEE780B400AFFEE780B4DF
:1008700000AFFEE780B400AFFEE780B400AF00BF7A
:10088000BD465DF8047B704780B400AF00BFBD4635
:100890005DF8047B704780B400AF00BFBD465DF8D3
:1008A000047B704780B500AF05F04EFE00BF80BDF1
:1008B00080B500AF024804F06DFA00BF80BD00BFF4
:1008C000E420002080B500AF024807F039F900BFEE
:1008D00080BD00BF6C02002080B500AF024807F069
:1008E0002FF900BF80BD00BF6C02002080B500AFB3
:1008F000024805F04BFF00BF80BD00BF082000206C
:1009000080B500AF02480EF039F800BF80BD00BFCF
:100910005420002080B500AF024808F032FF00BF2D
:1009200080BD00BFD818002080B584B000AF7860CB
:100930003960284B284A4021786806F019FF264B79
:100940001B68B3F5B06F2DD9234B1B68DBB2803B1E
:10095000FB73204B9B781B021AB21E4B5B781BB2B9
:1009600013431BB2BB81BB8946F2630293420ED094
:1009700046F26902934229D1FB7B013BDB00174A17
:10098000134408221349184610F0BCFD1EE0FB7BFF
:10099000013BDB00124A134408220E49184610F0AE
:1009A000B1FD13E00C4B1B68042B0FD90A4B1B68DD
:1009B000082B0BD8084B1B68053BDB00094A134486
:1009C00008220449184610F09DFDFFE700BF1037CC
:1009D000BD4680BD640200203C02002014030020BC
:1009E000340300205403002080B483B000AF78604B
:1009F0007B681B680D4A934212D10D4B1B78013363
:100A0000DAB20B4B1A700A4B1B7803F00303DBB20C
:100A1000002B05D1074B01221A70054B00221A70DA
:100A200000BF0C37BD465DF8047B704700000140F5
:100A3000120200201002002080B584B000AF786060
:100A40000B467B800023FB607B681B680A4A93424D
:100A50000DD17A886423094909480DF0F1FD084851
:100A60000DF0DAFE40220549054810F032FC00BFC7
:100A70001037BD4680BD00BF00440040B4010020D7
:100A8000542000200000000080B586B000AF7860E0
:100A90007B681B684A4A934240F08380494B1B782D
:100AA000FF2B0AD1474B5B78FF2B06D1454B9B7838
:100AB000FF2B02D1444B01221A70424B1B781B02C0
:100AC0001AB2404B5B781BB213431BB2FB823D4B07
:100AD0009B781B021AB23B4BDB781BB213431BB251
:100AE000BB82384B1B791B021AB2364B5B791BB2A7
:100AF00013431BB27B82FB8AA3F500739BB23B823C
:100B0000BB8AA3F500739BB2FB817B8AA3F50073BC
:100B10009BB2BB81B7F9103007EE903AF8EEE77A56
:100B2000B7EEE77A9FED226B27EE066B9FED225B17
:100B300086EE057BF7EEC74BB7F90E3007EE903A1D
:100B4000F8EEE77AB7EEE77A9FED196B27EE066BC2
:100B50009FED195B86EE057BB7EEC74BB7F90C30FE
:100B600007EE903AF8EEE77AB7EEE77A9FED106B72
:100B700027EE066B9FED105B86EE057BF7EEC77BDD
:100B8000B0EE671AF0EE440AB0EE640A07F060FEB9
:100B900006210C4808F05EF906220A490B480DF0C0
:100BA000E5FD00BF1837BD4680BD00BFAFF3008034
:100BB00000000000000059400000000000008040DC
:100BC00000440040B4010020110200205420002005
:100BD00080B584B000AF78600023FB607B681B6841
:100BE000054A934204D10622044905480DF0BEFD92
:100BF00000BF1037BD4680BD00440040B401002056
:100C00005420002080B483B000AF0A4BD3F8F430F6
:100C1000084A43F00203C2F8F430064BD3F8F4302C
:100C200003F002037B607B6800BF0C37BD465DF8B4
:100C3000047B70470044025880B400AF324BD3F8B5
:100C40008830314A43F47003C2F888302F4B1B6858
:100C500003F00F03062B07D82C4B1B6823F00F0360
:100C60002A4A43F007031360294B1B68284A43F0C4
:100C700001031360264B00221A61254B1A68244990
:100C8000244B13400B60214B1B6803F00803002B1F
:100C900007D01E4B1B6823F00F031C4A43F00703C9
:100CA00013601B4B00229A61194B0022DA61184B2A
:100CB00000221A62164B184A9A62154B174ADA62DA
:100CC000134B174A1A63124B00225A63104B144AF3
:100CD0009A630F4B0022DA630D4B114A1A640C4BD6
:100CE00000225A640A4B1B68094A23F480231360CC
:100CF000074B00221A660B4B43F2D2021A6000BF68
:100D0000BD465DF8047B704700ED00E00020005216
:100D1000004402587FEDF6EA000202020000FF01E3
:100D2000800201010040005280B485B000AF7860BD
:100D30007B6803F00703FB600B4BDB68BB60BA68A2
:100D40004FF6FF031340BB60FB681A02BB681A43EF
:100D5000064B1343BB60044ABB68D36000BF143723
:100D6000BD465DF8047B704700ED00E00000FA0529
:100D700080B400AF044BDB681B0A03F0070318467E
:100D8000BD465DF8047B704700ED00E080B483B0A1
:100D900000AF0346FB80B7F90630002B0BDBFB8866
:100DA00003F01F020749B7F906305B09012000FA7A
:100DB00002F241F8232000BF0C37BD465DF8047BEA
:100DC000704700BF00E100E080B483B000AF03468D
:100DD0003960FB80B7F90630002B0ADB3B68DAB2DA
:100DE0000C49B7F906301201D2B20B4483F8002344
:100DF0000AE03B68DAB20849FB8803F00F03043BC2
:100E00001201D2B20B441A7600BF0C37BD465DF812
:100E1000047B704700E100E000ED00E080B489B0A1
:100E200000AFF860B9607A60FB6803F00703FB610C
:100E3000FB69C3F10703042B28BF0423BB61FB69D3
:100E40000433062B02D9FB69033B00E000237B61DE
:100E50004FF0FF32BB6902FA03F3DA43BB681A4072
:100E60007B699A404FF0FF317B6901FA03F3D94364
:100E70007B680B40134318462437BD465DF8047B5E
:100E80007047000080B582B000AF78607B68013B9E
:100E9000B3F1807F01D301230FE00A4A7B68013B55
:100EA00053600F214FF0FF30FFF78EFF054B0022FC
:100EB0009A60044B07221A60002318460837BD4683
:100EC00080BD00BF10E000E080B582B000AF786068
:100ED0007868FFF729FF00BF0837BD4680BD80B5A1
:100EE00086B000AF0346B9607A60FB81FFF740FF30
:100EF00078617A68B9687869FFF790FF0246B7F9B8
:100F00000E3011461846FFF75FFF00BF1837BD4689
:100F100080BD80B582B000AF0346FB80B7F90630D4
:100F20001846FFF733FF00BF0837BD4680BD80B5C8
:100F300082B000AF78607868FFF7A4FF03461846D8
:100F40000837BD4680BD000080B58CB000AF78602A
:100F50007B68002B01D101239DE37B681B6803F0B4
:100F60000103002B00F08780884B1B6903F03803D6
:100F7000FB62864B9B6ABB62FB6A102B07D0FB6A45
:100F8000182B10D1BB6A03F00303022B0BD17F4B4C
:100F90001B6803F40033002B6CD07B685B68002B6C
:100FA00068D1012377E37B685B68B3F5803F06D1A6
:100FB000764B1B68754A43F4803313602EE07B68E0
:100FC0005B68002B0CD1714B1B68704A23F4803393
:100FD00013606E4B1B686D4A23F4802313601DE081
:100FE0007B685B68B3F5A02F0CD1684B1B68674A20
:100FF00043F480231360654B1B68644A43F48033D9
:1010000013600BE0614B1B68604A23F4803313606C
:101010005E4B1B685D4A23F4802313607B685B682A
:10102000002B13D005F0A4FA786208E005F0A0FACE
:1010300002467B6AD31A642B01D903232BE3534B5B
:101040001B6803F40033002BF0D014E005F090FA95
:10105000786208E005F08CFA02467B6AD31A642BAA
:1010600001D9032317E3494B1B6803F40033002B1A
:10107000F0D100E000BF7B681B6803F00203002B87
:1010800000F08C80414B1B6903F038033B623F4BFF
:101090009B6AFB613B6A002B07D03B6A182B37D158
:1010A000FB6903F00303002B32D1384B1B6803F0BC
:1010B0000403002B05D07B68DB68002B01D10123E2
:1010C000E9E2324B1B6823F019027B68DB682F4989
:1010D00013430B6005F04CFA786208E005F048FA1B
:1010E00002467B6AD31A022B01D90323D3E2274B92
:1010F0001B6803F00403002BF0D0244B5B6823F043
:10110000FE427B681B691B06204913434B6045E088
:101110007B68DB68002B26D01C4B1B6823F0190270
:101120007B68DB68194913430B6005F021FA78628C
:1011300008E005F01DFA02467B6AD31A022B01D99A
:101140000323A8E2114B1B6803F00403002BF0D02B
:101150000E4B5B6823F0FE427B681B691B060B4944
:1011600013434B601AE0094B1B68084A23F0010344
:10117000136005F0FDF978620AE005F0F9F902461E
:101180007B6AD31A022B03D9032384E2004402585A
:10119000964B1B6803F00403002BEED17B681B68A1
:1011A00003F01003002B6AD0904B1B6903F0380347
:1011B000BB618E4B9B6A7B61BB69082B07D0BB6907
:1011C000182B1BD17B6903F00303012B16D1874B2E
:1011D0001B6803F48073002B05D07B68DB69802BD0
:1011E00001D0012357E2814BDB6823F07C527B68FE
:1011F0001B6A1B067D491343CB6040E07B68DB69BB
:10120000002B23D0794B1B68784A43F0800313608E
:1012100005F0AEF9786208E005F0AAF902467B6AAB
:10122000D31A022B01D9032335E2704B1B6803F458
:101230008073002BF0D06D4BDB6823F07C527B6811
:101240001B6A1B0669491343CB6018E0674B1B6898
:10125000664A23F08003136005F08AF9786208E09B
:1012600005F086F902467B6AD31A022B01D90323C3
:1012700011E25E4B1B6803F48073002BF0D17B6896
:101280001B6803F00803002B36D07B685B69002BDA
:1012900019D0564B5B6F554A43F00103536705F075
:1012A00067F9786208E005F063F902467B6AD31AB1
:1012B000022B01D90323EEE14C4B5B6F03F00203D9
:1012C000002BF0D018E0494B5B6F484A23F0010334
:1012D000536705F04DF9786208E005F049F90246D8
:1012E0007B6AD31A022B01D90323D4E13F4B5B6FF6
:1012F00003F00203002BF0D17B681B6803F020038E
:10130000002B36D07B689B69002B19D0374B1B68AC
:10131000364A43F48053136005F02AF9786208E0F6
:1013200005F026F902467B6AD31A022B01D9032362
:10133000B1E12E4B1B6803F40053002BF0D018E0F2
:101340002A4B1B68294A23F48053136005F010F9D7
:10135000786208E005F00CF902467B6AD31A022B8A
:1013600001D9032397E1214B1B6803F40053002BA1
:10137000F0D17B681B6803F00403002B00F086802B
:101380001B4B1B681A4A43F48073136005F0F0F896
:10139000786208E005F0ECF802467B6AD31A642B09
:1013A00001D9032377E1124B1B6803F48073002BF0
:1013B000F0D07B689B68012B06D10C4B1B6F0B4A4E
:1013C00043F00103136732E07B689B68002B11D167
:1013D000064B1B6F054A23F001031367034B1B6F7A
:1013E000024A23F00403136721E000BF00440258BF
:1013F000004802587B689B68052B0CD1834B1B6F00
:10140000824A43F004031367804B1B6F7F4A43F00B
:10141000010313670BE07D4B1B6F7C4A23F0010334
:1014200013677A4B1B6F794A23F0040313677B68B9
:101430009B68002B15D005F09BF878620AE005F058
:1014400097F802467B6AD31A41F28832934201D957
:10145000032320E16D4B1B6F03F00203002BEED042
:1014600014E005F085F878620AE005F081F802469C
:101470007B6AD31A41F28832934201D903230AE1ED
:10148000624B1B6F03F00203002BEED17B685B6A9B
:10149000002B00F0FF805D4B1B6903F03803182B15
:1014A00000F0BA807B685B6A022B40F09580574B56
:1014B0001B68564A23F08073136005F059F8786270
:1014C00008E005F055F802467B6AD31A022B01D9D1
:1014D0000323E0E04D4B1B6803F00073002BF0D1B9
:1014E0004A4B9A6A4A4B13407A68916A7A68D26A80
:1014F00012010A43454913438B627B681B6B013B16
:10150000C3F308027B685B6B013B5B029BB21A432F
:101510007B689B6B013B1B0403F4FE031A437B684F
:10152000DB6B013B1B0603F0FE43384913430B639F
:10153000364BDB6A354A23F00103D362334B5A6BD7
:10154000344B13407A68926CD200304913434B639A
:101550002E4BDB6A23F00C027B681B6C2B49134378
:10156000CB622A4BDB6A23F002027B685B6C274963
:101570001343CB62254BDB6A244A43F48033D362A6
:10158000224BDB6A214A43F40033D3621F4BDB6AF0
:101590001E4A43F48023D3621C4BDB6A1B4A43F090
:1015A0000103D362194B1B68184A43F08073136020
:1015B00004F0DEFF786208E004F0DAFF02467B6A9E
:1015C000D31A022B01D9032365E0104B1B6803F0EB
:1015D0000073002BF0D05DE00C4B1B680B4A23F02E
:1015E0008073136004F0C4FF786208E004F0C0FF69
:1015F00002467B6AD31A022B01D903234BE0034B2B
:101600001B6803F00073002BF0D143E00044025844
:101610000CFCFFFF0700FFFF214B9B6A3B61204B47
:101620001B6BFB607B685B6A012B31D03B6903F06D
:1016300003027B689B6A9A422AD13B691B0903F02B
:101640003F027B68DB6A9A4222D1FB68C3F308023F
:101650007B681B6B013B9A421AD1FB685B0A03F063
:101660007F027B685B6B013B9A4211D1FB681B0CCC
:1016700003F07F027B689B6B013B9A4208D1FB68B9
:101680001B0E03F07F027B68DB6B013B9A4201D0AB
:10169000012300E0002318463037BD4680BD00BF5F
:1016A0000044025880B586B000AF786039607B682E
:1016B000002B01D101239CE18A4B1B6803F00F032F
:1016C0003A689A4210D9874B1B6823F00F0285496C
:1016D0003B6813430B60834B1B6803F00F033A68AE
:1016E0009A4201D0012384E17B681B6803F0040364
:1016F000002B10D07B681A697B4B9B6903F0700349
:101700009A4208D9784B9B6923F070027B681B6969
:10171000754913438B617B681B6803F00803002B3A
:1017200010D07B685A69704BDB6903F070039A42F2
:1017300008D96D4BDB6923F070027B685B696A49ED
:101740001343CB617B681B6803F01003002B10D0A0
:101750007B689A69644BDB6903F4E0639A4208D9B9
:10176000614BDB6923F4E0627B689B695E4913434C
:10177000CB617B681B6803F02003002B10D07B68D3
:10178000DA69594B1B6A03F070039A4208D9564B29
:101790001B6A23F070027B68DB69534913430B62B9
:1017A0007B681B6803F00203002B10D07B68DA68AB
:1017B0004D4B9B6903F00F039A4208D94A4B9B6932
:1017C00023F00F027B68DB68474913438B617B681A
:1017D0001B6803F00103002B55D0434B9B6923F496
:1017E00070627B689B68404913438B617B685B68D0
:1017F000022B07D13C4B1B6803F40033002B21D193
:101800000123F6E07B685B68032B07D1364B1B682E
:1018100003F00073002B15D10123EAE07B685B68BD
:10182000012B07D1304B1B6803F48073002B09D1C7
:101830000123DEE02C4B1B6803F00403002B01D1D5
:101840000123D6E0284B1B6923F007027B685B6805
:10185000254913430B6104F08BFE78610AE004F024
:1018600087FE02467B69D31A41F28832934201D93E
:101870000323BEE01C4B1B6903F038027B685B68E6
:10188000DB009A42EBD17B681B6803F00203002B5C
:1018900010D07B68DA68144B9B6903F00F039A42FF
:1018A00008D2114B9B6923F00F027B68DB680E495D
:1018B00013438B610B4B1B6803F00F033A689A428A
:1018C00014D2084B1B6823F00F0206493B681343F0
:1018D0000B60044B1B6803F00F033A689A4205D073
:1018E000012386E000200052004402587B681B68F8
:1018F00003F00403002B10D07B681A693F4B9B69EF
:1019000003F070039A4208D23C4B9B6923F07002AB
:101910007B681B69394913438B617B681B6803F043
:101920000803002B10D07B685A69344BDB6903F045
:1019300070039A4208D2314BDB6923F070027B6856
:101940005B692E491343CB617B681B6803F010036E
:10195000002B10D07B689A69284BDB6903F4E063A5
:101960009A4208D2254BDB6923F4E0627B689B69CD
:1019700022491343CB617B681B6803F02003002BD3
:1019800010D07B68DA691D4B1B6A03F070039A4222
:1019900008D21A4B1B6A23F070027B68DB69174977
:1019A00013430B6200F034F80246144B9B691B0A88
:1019B00003F00F031249CB5C03F01F0322FA03F379
:1019C0003B610E4B9B6903F00F030D4AD35C03F0A0
:1019D0001F033A6922FA03F30A4A13600A4A3B6971
:1019E00013600A4B1B68184604F078FD0346FB732E
:1019F000FB7B18461837BD4680BD00BF0044025827
:101A000048280108040000200000002008000020F1
:101A100080B489B000AFB34B1B6903F03803182BB7
:101A200000F2558101A252F823F000BF911A00087C
:101A3000CF1C0008CF1C0008CF1C0008CF1C0008DA
:101A4000CF1C0008CF1C0008CF1C0008B71A0008E4
:101A5000CF1C0008CF1C0008CF1C0008CF1C0008BA
:101A6000CF1C0008CF1C0008CF1C0008BD1A0008BE
:101A7000CF1C0008CF1C0008CF1C0008CF1C00089A
:101A8000CF1C0008CF1C0008CF1C0008C31A000898
:101A9000944B1B6803F02003002B09D0914B1B686B
:101AA000DB0803F00303904A22FA03F3BB6111E160
:101AB0008D4BBB610EE18D4BBB610BE18C4BBB6170
:101AC00008E1884B9B6A03F003037B61854B9B6AAB
:101AD0001B0903F03F033B61824BDB6A03F0010308
:101AE000FB60804B5B6BDB08C3F30C03FA6802FB03
:101AF00003F307EE903AF8EE677AC7ED027A3B6996
:101B0000002B00F0E1807B69022B00F083807B6971
:101B1000022B00F2A1807B69002B03D07B69012B93
:101B200056D099E06F4B1B6803F02003002B2DD09B
:101B30006C4B1B68DB0803F003036B4A22FA03F3C8
:101B40007B607B6807EE903AF8EE676A3B6907EEC8
:101B5000903AF8EE677A86EEA77A624B1B6BC3F376
:101B6000080307EE903AF8EE676A97ED026ADFED38
:101B7000615AC6EE257A76EEA77AF7EE006A77EE1E
:101B8000A67A67EE277AC7ED077A87E03B6907EE0A
:101B9000903AF8EE677ADFED586A86EEA77A514BF5
:101BA0001B6BC3F3080307EE903AF8EE676A97EDF4
:101BB000026ADFED505AC6EE257A76EEA77AF7EE86
:101BC000006A77EEA67A67EE277AC7ED077A65E0B6
:101BD0003B6907EE903AF8EE677ADFED486A86EEE9
:101BE000A77A404B1B6BC3F3080307EE903AF8EE5D
:101BF000676A97ED026ADFED3F5AC6EE257A76EE08
:101C0000A77AF7EE006A77EEA67A67EE277AC7ED35
:101C1000077A43E03B6907EE903AF8EE677ADFED2A
:101C2000386A86EEA77A2F4B1B6BC3F3080307EEC7
:101C3000903AF8EE676A97ED026ADFED2E5AC6EE2B
:101C4000257A76EEA77AF7EE006A77EEA67A67EE47
:101C5000277AC7ED077A21E03B6907EE903AF8EE64
:101C6000677ADFED266A86EEA77A1E4B1B6BC3F3FD
:101C7000080307EE903AF8EE676A97ED026ADFED27
:101C80001D5AC6EE257A76EEA77AF7EE006A77EE51
:101C9000A67A67EE277AC7ED077A00BF114B1B6B58
:101CA0005B0A03F07F0301333B603B6807EE903A29
:101CB000B8EE677AD7ED076AC6EE877AFCEEE77A68
:101CC00017EE903ABB6105E00023BB6102E0074BD1
:101CD000BB6100BFBB6918462437BD465DF8047B75
:101CE000704700BF004402580090D00300093D0037
:101CF00000127A00000000460024744C0024744A4C
:101D00000024F44A80B582B000AFFFF781FE02469E
:101D1000104B9B691B0A03F00F030F49CB5C03F0C8
:101D20001F0322FA03F37B600A4B9B6903F00F0346
:101D3000094AD35C03F01F037A6822FA03F3074AC7
:101D40001360074A7B681360044B1B68184608370A
:101D5000BD4680BD00440258482801080400002008
:101D60000000002080B500AFFFF7CCFF0246064B15
:101D7000DB691B0903F007030449CB5C03F01F0375
:101D800022FA03F3184680BD00440258482801088F
:101D900080B500AFFFF7B6FF0246064BDB691B0AB2
:101DA00003F007030449CB5C03F01F0322FA03F39B
:101DB000184680BD004402584828010880B586B006
:101DC00000AF78600023FB750023BB757B681B6840
:101DD00003F00063002B3FD07B681B6EB3F5401F00
:101DE0002AD0B3F5401F24D8B3F5001F18D0B3F59F
:101DF000001F1ED8002B03D0B3F5801F07D018E0BA
:101E0000A44BDB6AA34A43F40033D36215E07B683A
:101E100004330221184601F089F90346FB750CE0F2
:101E20007B6824330221184601F032FA0346FB7521
:101E300003E00123FB7500E000BFFB7D002B09D10F
:101E4000944B1B6D23F440127B681B6E9149134326
:101E50000B6501E0FB7DBB757B681B6803F4807339
:101E6000002B3DD07B685B6D042B26D801A252F875
:101E700023F000BF891E0008971E0008A91E000855
:101E8000C11E0008C11E0008824BDB6A814A43F470
:101E90000033D36215E07B6804330021184601F05B
:101EA00045F90346FB750CE07B6824330021184696
:101EB00001F0EEF90346FB7503E00123FB7500E03A
:101EC00000BFFB7D002B09D1724B1B6D23F0070275
:101ED0007B685B6D6F4913430B6501E0FB7DBB7550
:101EE0007B681B6803F48063002B51D07B68D3F8B8
:101EF000A030B3F5200F36D0B3F5200F30D8B3F5AE
:101F0000000F32D0B3F5000F2AD8B3F5C00F2ED092
:101F1000B3F5C00F24D8B3F5800F18D0B3F5800FF8
:101F20001ED8002B03D0B3F5001F07D018E0594B83
:101F3000DB6A584A43F40033D36219E07B68043308
:101F40000021184601F0F2F80346FB7510E07B68AB
:101F500024330021184601F09BF90346FB7507E086
:101F60000123FB7504E000BF02E000BF00E000BFFA
:101F7000FB7D002B0AD1474B9B6D23F460027B68ED
:101F8000D3F8A030434913438B6501E0FB7DBB755B
:101F90007B681B6803F40063002B51D07B68D3F887
:101FA000A430B3F1A06F36D0B3F1A06F30D8B3F145
:101FB000806F32D0B3F1806F2AD8B3F1407F2ED03A
:101FC000B3F1407F24D8B3F1007F18D0B3F1007F84
:101FD0001ED8002B03D0B3F1807F07D018E02D4B23
:101FE000DB6A2C4A43F40033D36219E07B68043384
:101FF0000021184601F09AF80346FB7510E07B6853
:1020000024330021184601F043F90346FB7507E02D
:102010000123FB7504E000BF02E000BF00E000BF49
:10202000FB7D002B0AD11B4B9B6D23F0E0627B688C
:10203000D3F8A430174913438B6501E0FB7DBB75D2
:102040007B681B6803F00073002B35D07B689B6CAA
:10205000302B1CD0302B17D8202B0CD0202B13D892
:10206000002B19D0102B0FD10A4BDB6A094A43F41D
:102070000033D36211E07B6804330221184601F07B
:1020800055F80346FB7508E00123FB7505E000BF2A
:1020900003E000BF0044025800BFFB7D002B09D1C4
:1020A000A34BDB6C23F030027B689B6CA04913438D
:1020B000CB6401E0FB7DBB757B681B6803F4805338
:1020C000002B47D07B689B6DB3F5804F30D0B3F5C4
:1020D000804F2AD8B3F5405F2CD0B3F5405F24D8A9
:1020E000B3F5005F18D0B3F5005F1ED8002B03D006
:1020F000B3F5805F07D018E08D4BDB6A8C4A43F460
:102100000033D36217E07B6804330021184601F0E6
:102110000DF80346FB750EE07B682433002118465A
:1021200001F0B6F80346FB7505E00123FB7502E0FC
:1021300000BF00E000BFFB7D002B09D17C4B1B6D75
:1021400023F4E0427B689B6D794913430B6501E002
:10215000FB7DBB757B681B6803F40053002B49D0E3
:102160007B68DB6DB3F5A02F2ED0B3F5A02F28D858
:10217000B3F5802F2AD0B3F5802F22D8B3F5403F96
:1021800026D0B3F5403F1CD8B3F5003F10D0B3F5CF
:10219000003F16D8002B1DD0B3F5803F11D17B68CE
:1021A00004330121184600F0C1FF0346FB7512E01D
:1021B0007B6824330121184601F06AF80346FB7559
:1021C00009E00123FB7506E000BF04E000BF02E068
:1021D00000BF00E000BFFB7D002B09D1544B1B6DFD
:1021E00023F4E0227B68DB6D514913430B6501E06A
:1021F000FB7DBB757B681B6803F48043002B4BD0D1
:102200007B68D3F8A830B3F1A04F2ED0B3F1A04F24
:1022100028D8B3F1804F2AD0B3F1804F22D8B3F140
:10222000405F26D0B3F1405F1CD8B3F1005F10D0FF
:10223000B3F1005F16D8002B1DD0B3F1805F11D130
:102240007B6804330121184600F070FF0346FB75DC
:1022500012E07B6824330121184601F019F8034687
:10226000FB7509E00123FB7506E000BF04E000BF39
:1022700002E000BF00E000BFFB7D002B0AD12C4B29
:102280009B6D23F0E0427B68D3F8A83028491343C4
:102290008B6501E0FB7DBB757B681B6803F4004325
:1022A000002B2FD07B689B6EB3F1005F0ED0B3F193
:1022B000005F14D8002B15D0B3F1805F0FD11C4BF9
:1022C000DB6A1B4A43F40033D3620CE07B680433BF
:1022D0000121184600F02AFF0346FB7503E00123A5
:1022E000FB7500E000BFFB7D002B09D1104B1B6D7F
:1022F00023F040527B689B6E0D4913430B6501E050
:10230000FB7DBB757B681B6803F08073002B34D0AA
:102310007B685B6C032B1DD801A252F823F000BF31
:102320005B23000835230008432300085B230008D3
:1023300000440258B14BDB6AB04A43F40033D36225
:102340000CE07B6804330221184600F0EFFE0346E0
:10235000FB7503E00123FB7500E000BFFB7D002B54
:1023600009D1A64BDB6C23F003027B685B6CA349AD
:102370001343CB6401E0FB7DBB757B681B6803F4F2
:102380008003002B00F086809D4B1B689C4A43F421
:102390008073136004F0ECF8386109E004F0E8F8A9
:1023A00002463B69D31A642B02D90323FB7505E06F
:1023B000934B1B6803F48073002BEFD0FB7D002B45
:1023C00066D18E4B1A6F7B68D3F8AC30534003F460
:1023D0004073002B13D0894B1B6F23F44073FB60B9
:1023E000864B1B6F854A43F480331367834B1B6F07
:1023F000824A23F480331367804AFB6813677B6843
:10240000D3F8AC30B3F5807F15D104F0B1F8386162
:102410000BE004F0ADF802463B69D31A41F2883272
:10242000934202D90323FB7505E0744B1B6F03F045
:102430000203002BEDD0FB7D002B26D17B68D3F867
:10244000AC3003F44073B3F5407F0DD16B4B1B6987
:1024500023F47C527B68D3F8AC301909694B0B40EC
:10246000664913430B6105E0644B1B69634A23F41F
:102470007C531361614B1A6F7B68D3F8AC30C3F3A4
:102480000B035E4913430B6704E0FB7DBB7501E062
:10249000FB7DBB757B681B6803F00103002B7ED0BE
:1024A0007B685B6F282B67D801A252F823F000BF2E
:1024B0007F2500087925000879250008792500087E
:1024C0007925000879250008792500087925000874
:1024D0005525000879250008792500087925000888
:1024E0007925000879250008792500087925000854
:1024F0006725000879250008792500087925000856
:102500007925000879250008792500087925000833
:102510007F2500087925000879250008792500081D
:102520007925000879250008792500087925000813
:102530007F250008792500087925000879250008FD
:1025400079250008792500087925000879250008F3
:102550007F2500087B6804330121184600F0E6FD62
:102560000346FB750CE07B6824330121184600F01C
:102570008FFE0346FB7503E00123FB7500E000BFFF
:10258000FB7D002B09D11D4B5B6D23F038027B686E
:102590005B6F1A4913434B6501E0FB7DBB757B689C
:1025A0001B6803F00203002B3ED07B681B6F052BDA
:1025B00020D801A252F823F009260008D1250008EE
:1025C000E325000809260008092600080926000856
:1025D0007B6804330121184600F0A8FD0346FB7513
:1025E00013E07B6824330121184600F051FE0346B6
:1025F000FB750AE00123FB7507E000BF00440258A9
:1026000000480258CFFFFF0000BFFB7D002B09D11F
:102610009F4B5B6D23F007027B681B6F9C49134344
:102620004B6501E0FB7DBB757B681B6803F0040311
:10263000002B39D07B68D3F88C30052B20D801A231
:1026400052F823F0872600085D2600086F26000850
:102650008726000887260008872600087B68043341
:102660000121184600F062FD0346FB750CE07B6813
:1026700024330121184600F00BFE0346FB7503E0EE
:102680000123FB7500E000BFFB7D002B0AD1804BCE
:102690009B6D23F007027B68D3F88C307C49134391
:1026A0008B6501E0FB7DBB757B681B6803F0200335
:1026B000002B4BD07B68D3F88830B3F1A04F2ED0DD
:1026C000B3F1A04F28D8B3F1804F2AD0B3F1804F97
:1026D00022D8B3F1405F26D0B3F1405F1CD8B3F1EC
:1026E000005F10D0B3F1005F16D8002B1DD0B3F1FE
:1026F000805F11D17B6804330021184600F016FD7D
:102700000346FB7512E07B6824330221184600F073
:10271000BFFD0346FB7509E00123FB7506E000BF22
:1027200004E000BF02E000BF00E000BFFB7D002B23
:102730000AD1574B5B6D23F0E0427B68D3F88830B9
:10274000534913434B6501E0FB7DBB757B681B68F8
:1027500003F04003002B4BD07B68D3F89430B3F5E3
:10276000A05F2ED0B3F5A05F28D8B3F5805F2AD044
:10277000B3F5805F22D8B3F5406F26D0B3F5406F34
:102780001CD8B3F5006F10D0B3F5006F16D8002B2E
:102790001DD0B3F5806F11D17B680433002118463A
:1027A00000F0C4FC0346FB7512E07B682433022171
:1027B000184600F06DFD0346FB7509E00123FB752B
:1027C00006E000BF04E000BF02E000BF00E000BF81
:1027D000FB7D002B0AD12E4B9B6D23F4E0527B68CE
:1027E000D3F894302A4913438B6501E0FB7DBB7518
:1027F0007B681B6803F08003002B4DD07B68D3F807
:102800009830B3F5204F2ED0B3F5204F28D8B3F52C
:10281000004F2AD0B3F5004F22D8B3F5C04F26D0D1
:10282000B3F5C04F1CD8B3F5804F10D0B3F5804F2F
:1028300016D8002B1DD0B3F5005F11D17B6804338F
:102840000021184600F072FC0346FB7512E07B681D
:1028500024330221184600F01BFD0346FB7509E0F6
:102860000123FB7506E000BF04E000BF02E000BFEB
:1028700000E000BFFB7D002B0CD1054B9B6D23F4CA
:1028800060427B68D3F89830014913438B6503E0BD
:1028900000440258FB7DBB757B681B6803F008038E
:1028A000002B18D07B68DB6FB3F5805F0AD17B68A3
:1028B00024330221184600F0EBFC0346002B01D024
:1028C0000123BB758A4B5B6D23F440527B68DB6F41
:1028D000874913434B657B681B6803F01003002B8B
:1028E0001AD07B68D3F89030B3F5807F0AD17B682B
:1028F00024330221184600F0CBFC0346002B01D004
:102900000123BB757A4B9B6D23F440727B68D3F82F
:102910009030774913438B657B681B6803F4002371
:10292000002B34D07B68D3F89C30B3F5003F1DD02A
:10293000B3F5003F17D8002B03D0B3F5803F09D083
:1029400011E07B6804330021184600F0EFFB0346DA
:10295000FB750CE07B6824330221184600F098FCDC
:102960000346FB7503E00123FB7500E000BFFB7D20
:10297000002B0AD15E4B9B6D23F440327B68D3F869
:102980009C305B4913438B6501E0FB7DBB757B6825
:102990001B6803F48023002B33D07B68D3F880308E
:1029A000B3F5401F1CD0B3F5401F16D8B3F5801FF8
:1029B00003D0B3F5001F07D00FE04D4BDB6A4C4A44
:1029C00043F40033D3620CE07B68243301211846C2
:1029D00000F05EFC0346FB7503E00123FB7500E09D
:1029E00000BFFB7D002B0AD1414B5B6D23F44012ED
:1029F0007B68D3F880303E4913434B6501E0FB7D93
:102A0000BB757B681B6803F48033002B29D07B687F
:102A1000DB6C002B03D0B3F5803F07D00FE0344BC5
:102A2000DB6A334A43F40033D3620BE07B68043340
:102A30000221184600F07AFB0346FB7502E00123F1
:102A4000FB7500BFFB7D002B09D1294BDB6C23F408
:102A500080327B68DB6C26491343CB6401E0FB7D4D
:102A6000BB757B681B6803F00053002B0AD07B68A2
:102A700024330221184600F00BFC0346002B01D042
:102A80000123BB757B681B6803F40033002B33D034
:102A90007B689B6FB3F5407F17D0B3F5407F11D8AB
:102AA000B3F5007F13D0B3F5007F0BD8002B10D007
:102AB000B3F5807F06D10E4BDB6A0D4A43F4003339
:102AC000D36207E00123FB7504E000BF02E000BF12
:102AD00000E000BFFB7D002B0CD1054B5B6D23F4A8
:102AE00040727B689B6F024913434B6504E000BF53
:102AF00000440258FB7DBB757B681B6803F48013A0
:102B0000002B08D0294B1B6D23F000427B68DB6E45
:102B1000264913430B657B681B6803F40013002BE5
:102B200008D0224B1B6D23F080727B685B6E1F49BF
:102B300013430B657B681B6803F08043002B0DD0AB
:102B40001A4B1B69194A23F400431361174B1A6986
:102B50007B68D3F8B030154913430B617B681B6861
:102B6000002B08DA114BDB6C23F040527B681B6DA5
:102B70000E491343CB647B681B6803F40003002BEE
:102B800009D00A4B5B6D23F440027B68D3F8843094
:102B9000064913434B65BB7D002B01D1002300E0A8
:102BA000012318461837BD4680BD00BF00440258B7
:102BB00080B500AFFFF7A6F80246064B1B6A1B095B
:102BC00003F007030449CB5C03F01F0322FA03F36D
:102BD000184680BD004402584828010880B489B0D6
:102BE00000AF7860A14B9B6A03F00303BB619F4B6E
:102BF0009B6A1B0B03F03F037B619C4BDB6A1B0949
:102C000003F001033B61994BDB6BDB08C3F30C035F
:102C10003A6902FB03F307EE903AF8EE677AC7EDE4
:102C2000037A7B69002B00F01181BB69022B00F055
:102C30008380BB69022B00F2A180BB69002B03D00B
:102C4000BB69012B56D099E0884B1B6803F0200329
:102C5000002B2DD0854B1B68DB0803F00303844A4F
:102C600022FA03F3BB60BB6807EE903AF8EE676A9E
:102C70007B6907EE903AF8EE677A86EEA77A7B4B8F
:102C80009B6BC3F3080307EE903AF8EE676A97ED83
:102C9000036ADFED785AC6EE257A76EEA77AF7EE6C
:102CA000006A77EEA67A67EE277AC7ED077A87E0A3
:102CB0007B6907EE903AF8EE677ADFED6F6A86EE91
:102CC000A77A6A4B9B6BC3F3080307EE903AF8EEC2
:102CD000676A97ED036ADFED675AC6EE257A76EEEE
:102CE000A77AF7EE006A77EEA67A67EE277AC7ED45
:102CF000077A65E07B6907EE903AF8EE677ADFEDD8
:102D00005F6A86EEA77A594B9B6BC3F3080307EE05
:102D1000903AF8EE676A97ED036ADFED565AC6EE11
:102D2000257A76EEA77AF7EE006A77EEA67A67EE56
:102D3000277AC7ED077A43E07B6907EE903AF8EE11
:102D4000677ADFED4F6A86EEA77A484B9B6BC3F339
:102D5000080307EE903AF8EE676A97ED036ADFED35
:102D6000455AC6EE257A76EEA77AF7EE006A77EE38
:102D7000A67A67EE277AC7ED077A21E07B6907EE2E
:102D8000903AF8EE677ADFED3D6A86EEA77A374B28
:102D90009B6BC3F3080307EE903AF8EE676A97ED72
:102DA000036ADFED345AC6EE257A76EEA77AF7EE9F
:102DB000006A77EEA67A67EE277AC7ED077A00BF3A
:102DC0002A4B9B6B5B0A03F07F0307EE903AF8EE09
:102DD000677AB7EE007A37EE877AD7ED076AC6EEE4
:102DE000877AFCEEE77A17EE902A7B681A601F4B11
:102DF0009B6B1B0C03F07F0307EE903AF8EE677AAB
:102E0000B7EE007A37EE877AD7ED076AC6EE877A93
:102E1000FCEEE77A17EE902A7B685A60134B9B6BA7
:102E20001B0E03F07F0307EE903AF8EE677AB7EED9
:102E3000007A37EE877AD7ED076AC6EE877AFCEE1E
:102E4000E77A17EE902A7B689A6008E07B68002298
:102E50001A607B6800225A607B6800229A6000BF7B
:102E60002437BD465DF8047B704700BF004402581C
:102E70000090D003000000460024744C0024744AE3
:102E80000024F44A80B489B000AF7860A14B9B6AFB
:102E900003F00303BB619F4B9B6A1B0D03F03F03D1
:102EA0007B619C4BDB6A1B0A03F001033B61994B7E
:102EB0005B6CDB08C3F30C033A6902FB03F307EE18
:102EC000903AF8EE677AC7ED037A7B69002B00F041
:102ED0001181BB69022B00F08380BB69022B00F2D9
:102EE000A180BB69002B03D0BB69012B56D099E0B0
:102EF000884B1B6803F02003002B2DD0854B1B68EB
:102F0000DB0803F00303844A22FA03F3BB60BB68C7
:102F100007EE903AF8EE676A7B6907EE903AF8EEB2
:102F2000677A86EEA77A7B4B1B6CC3F3080307EE28
:102F3000903AF8EE676A97ED036ADFED785AC6EECD
:102F4000257A76EEA77AF7EE006A77EEA67A67EE34
:102F5000277AC7ED077A87E07B6907EE903AF8EEAB
:102F6000677ADFED6F6A86EEA77A6A4B1B6CC3F354
:102F7000080307EE903AF8EE676A97ED036ADFED13
:102F8000675AC6EE257A76EEA77AF7EE006A77EEF4
:102F9000A67A67EE277AC7ED077A65E07B6907EEC8
:102FA000903AF8EE677ADFED5F6A86EEA77A594BC2
:102FB0001B6CC3F3080307EE903AF8EE676A97EDCF
:102FC000036ADFED565AC6EE257A76EEA77AF7EE5B
:102FD000006A77EEA67A67EE277AC7ED077A43E0B4
:102FE0007B6907EE903AF8EE677ADFED4F6A86EE7E
:102FF000A77A484B1B6CC3F3080307EE903AF8EE30
:10300000676A97ED036ADFED455AC6EE257A76EEDC
:10301000A77AF7EE006A77EEA67A67EE277AC7ED11
:10302000077A21E07B6907EE903AF8EE677ADFEDE8
:103030003D6A86EEA77A374B1B6CC3F3080307EE95
:10304000903AF8EE676A97ED036ADFED345AC6EE00
:10305000257A76EEA77AF7EE006A77EEA67A67EE23
:10306000277AC7ED077A00BF2A4B1B6C5B0A03F077
:103070007F0307EE903AF8EE677AB7EE007A37EE04
:10308000877AD7ED076AC6EE877AFCEEE77A17EE05
:10309000902A7B681A601F4B1B6C1B0C03F07F038C
:1030A00007EE903AF8EE677AB7EE007A37EE877A55
:1030B000D7ED076AC6EE877AFCEEE77A17EE902A1C
:1030C0007B685A60134B1B6C1B0E03F07F0307EEEB
:1030D000903AF8EE677AB7EE007A37EE877AD7ED56
:1030E000076AC6EE877AFCEEE77A17EE902A7B68CD
:1030F0009A6008E07B6800221A607B6800225A60B0
:103100007B6800229A6000BF2437BD465DF8047BCF
:10311000704700BF004402580090D00300000046F2
:103120000024744C0024744A0024F44A80B584B00E
:1031300000AF786039600023FB73534B9B6A03F048
:103140000303032B01D1012399E04F4B1B684E4A27
:1031500023F08063136003F00BFAB86008E003F01B
:1031600007FA0246BB68D31A022B01D9032386E073
:10317000454B1B6803F00063002BF0D1424B9B6A68
:1031800023F47C327B681B681B033F4913438B622B
:103190007B685B68013BC3F308027B689B68013B6B
:1031A0005B029BB21A437B68DB68013B1B0403F4A0
:1031B000FE031A437B681B69013B1B0603F0FE43B9
:1031C000314913438B63304BDB6A23F0C0027B68C9
:1031D0005B692D491343CB622B4BDB6A23F0200242
:1031E0007B689B6928491343CB62274BDB6A264ADD
:1031F00023F01003D362244BDA6B244B13407A681C
:10320000D269D20020491343CB631F4BDB6A1E4AAD
:1032100043F01003D3623B68002B06D11A4BDB6AE4
:10322000194A43F40023D3620FE03B68012B06D117
:10323000154BDB6A144A43F48013D36205E0124B4A
:10324000DB6A114A43F40013D3620F4B1B680E4A2A
:1032500043F08063136003F08BF9B86008E003F07B
:1032600087F90246BB68D31A022B01D9032306E073
:10327000054B1B6803F00063002BF0D0FB7B184666
:103280001037BD4680BD00BF004402580700FFFF55
:1032900080B584B000AF786039600023FB73534B76
:1032A0009B6A03F00303032B01D1012399E04F4BE9
:1032B0001B684E4A23F08053136003F059F9B8603D
:1032C00008E003F055F90246BB68D31A022B01D976
:1032D000032386E0454B1B6803F00053002BF0D11D
:1032E000424B9B6A23F07C727B681B681B053F493D
:1032F00013438B627B685B68013BC3F308027B6806
:103300009B68013B5B029BB21A437B68DB68013B15
:103310001B0403F4FE031A437B681B69013B1B0675
:1033200003F0FE43314913430B64304BDB6A23F453
:1033300040627B685B692D491343CB622B4BDB6A90
:1033400023F400727B689B6928491343CB62274BA7
:10335000DB6A264A23F48073D362244B5A6C244BD5
:1033600013407A68D269D200204913434B641F4B43
:10337000DB6A1E4A43F48073D3623B68002B06D19C
:103380001A4BDB6A194A43F48003D3620FE03B68AF
:10339000012B06D1154BDB6A144A43F40003D362B8
:1033A00005E0124BDB6A114A43F08073D3620F4B86
:1033B0001B680E4A43F08053136003F0D9F8B860DD
:1033C00008E003F0D5F80246BB68D31A022B01D9F6
:1033D000032306E0054B1B6803F00053002BF0D0DD
:1033E000FB7B18461037BD4680BD00BF0044025825
:1033F0000700FFFF80B489B000AF78603960002318
:10340000FB61864B7B618CE13B681A680121FB699B
:1034100001FA03F313403B613B69002B00F07E810E
:103420003B685B6803F00303012B05D03B685B68D6
:1034300003F00303022B30D17B689B68BB61FB69FF
:103440005B00032202FA03F3DB43BA691340BB615A
:103450003B68DA68FB695B0002FA03F3BA6913435D
:10346000BB617B68BA699A607B685B68BB6101225B
:10347000FB6902FA03F3DB43BA691340BB613B68A3
:103480005B681B0903F00102FB6902FA03F3BA69E6
:103490001343BB617B68BA695A603B685B6803F0A1
:1034A0000303032B17D07B68DB68BB61FB695B0000
:1034B000032202FA03F3DB43BA691340BB613B68A2
:1034C0009A68FB695B0002FA03F3BA691343BB61B4
:1034D0007B68BA69DA603B685B6803F00303022B20
:1034E00023D1FB69DA087B68083253F82230BB61CC
:1034F000FB6903F007039B000F2202FA03F3DB438F
:10350000BA691340BB613B681A69FB6903F00703A2
:103510009B0002FA03F3BA691343BB61FB69DA0843
:103520007B680832B96943F822107B681B68BB616D
:10353000FB695B00032202FA03F3DB43BA69134021
:10354000BB613B685B6803F00302FB695B0002FA46
:1035500003F3BA691343BB617B68BA691A603B68BD
:103560005B6803F44033002B00F0D8802C4BD3F879
:10357000F4302B4A43F00203C2F8F430284BD3F85E
:10358000F43003F00203FB60FB68264AFB699B08EA
:10359000023352F82330BB61FB6903F003039B0045
:1035A0000F2202FA03F3DB43BA691340BB617B6865
:1035B0001D4A93424AD07B681C4A93422BD07B68B9
:1035C0001B4A934225D07B681A4A93421FD07B68DE
:1035D000194A934219D07B68184A934213D07B68EA
:1035E000174A93420DD07B68164A934207D07B68F6
:1035F000154A934201D1092329E00A2327E0072332
:1036000025E0062323E0052321E004231FE0032314
:103610001DE002231BE0012319E000BF80000058D9
:1036200000440258000400580000025800040258E8
:1036300000080258000C02580010025800140258EA
:1036400000180258001C0258002402580023FA698E
:1036500002F0030292009340BA691343BB613849F8
:10366000FB699B080233BA6941F823204FF0B0434D
:103670001B68BB613B69DB43BA691340BB613B68B4
:103680005B6803F48013002B03D0BA693B691343D2
:10369000BB614FF0B042BB6913604FF0B0435B6851
:1036A000BB613B69DB43BA691340BB613B685B6844
:1036B00003F40013002B03D0BA693B691343BB61C9
:1036C0004FF0B042BB6953607B695B68BB613B698B
:1036D000DB43BA691340BB613B685B6803F40033AA
:1036E000002B03D0BA693B691343BB617B69BA699C
:1036F0005A607B691B68BB613B69DB43BA69134055
:10370000BB613B685B6803F48033002B03D0BA696C
:103710003B691343BB617B69BA691A60FB6901337A
:10372000FB613B681A68FB6922FA03F3002B7FF404
:103730006BAE00BF00BF2437BD465DF8047B704709
:103740000004005880B586B000AF786002F010FF2A
:1037500038617B68002B01D1012314E37B681B686F
:10376000664A93424AD07B681B68654A934245D0BB
:103770007B681B68634A934240D07B681B68624A3F
:1037800093423BD07B681B68604A934236D07B688B
:103790001B685F4A934231D07B681B685D4A934245
:1037A0002CD07B681B685C4A934227D07B681B68DF
:1037B0005A4A934222D07B681B68594A93421DD0D3
:1037C0007B681B68574A934218D07B681B68564A2F
:1037D000934213D07B681B68544A93420ED07B6897
:1037E0001B68534A934209D07B681B68514A934235
:1037F00004D07B681B68504A934201D1012300E04A
:103800000023002B00F03C817B68022283F83520E6
:103810007B68002283F834207B681B68374A934218
:103820004AD07B681B68364A934245D07B681B6848
:10383000344A934240D07B681B68334A93423BD062
:103840007B681B68314A934236D07B681B68304ADC
:10385000934231D07B681B682E4A93422CD07B6800
:103860001B682D4A934227D07B681B682B4A9342E2
:1038700022D07B681B682A4A93421DD07B681B6854
:10388000284A934218D07B681B68274A934213D07A
:103890007B681B68254A93420ED07B681B68244ACC
:1038A000934209D07B681B68224A934204D07B680C
:1038B0001B68214A934208D17B681B681A687B68A1
:1038C0001B6822F001021A6007E07B681B681A6817
:1038D0007B681B6822F001021A602FE002F048FEAC
:1038E00002463B69D31A052B28D97B6820225A65EA
:1038F0007B68032283F83520012344E21000024054
:10390000280002404000024058000240700002407F
:1039100088000240A0000240B800024010040240AB
:10392000280402404004024058040240700402404F
:1039300088040240A0040240B80402407B681B686F
:103940001B6803F00103002BC8D17B681B681B6850
:103950007B617A69844B13407B617B689A687B68E2
:10396000DB681A437B681B691A437B685B691A43EF
:103970007B689B691A437B68DB691A437B681B6A17
:1039800013437A6913437B617B685B6A042B07D11D
:103990007B68DA6A7B681B6B13437A6913437B612C
:1039A0007B685B68282B03D97B685B682E2B1FD94B
:1039B0007B685B683E2B03D97B685B68422B17D919
:1039C0007B685B68462B03D97B685B68482B0FD903
:1039D0007B685B684E2B03D97B685B68522B07D9E9
:1039E0007B685B68732B05D97B685B68772B01D894
:1039F000012300E00023002B03D07B6943F48013F4
:103A00007B617B681B687A691A607B681B685B69ED
:103A10007B617B6923F007037B617B685B6A7A6962
:103A200013437B617B685B6A042B17D17B689B6ABD
:103A30007A6913437B617B68DB6A002B0ED0786860
:103A400002F03CFB0346002B08D07B6840225A65FD
:103A50007B68012283F83520012394E17B681B6891
:103A60007A695A61786802F077FA0346BB607B682E
:103A7000DB6D03F01F033F229A40BB689A60CAE0E7
:103A80007B681B68394A934222D07B681B68384A9E
:103A900093421DD07B681B68364A934218D07B68DE
:103AA0001B68354A934213D07B681B68334A9342A4
:103AB0000ED07B681B68324A934209D07B681B6832
:103AC000304A934204D07B681B682F4A934201D14D
:103AD000012300E00023002B00F094807B681B682A
:103AE000224A934221D07B681B68214A93421CD012
:103AF0007B681B681F4A934217D07B681B681E4A6D
:103B0000934212D07B681B681C4A93420DD07B689D
:103B10001B681B4A934208D07B681B68194A934272
:103B200003D07B681B68184A934200BF7B6802225F
:103B300083F835207B68002283F834207B681B687B
:103B40001B687B617A69114B13407B617B689B68C2
:103B5000402B1DD07B689B68802B02D14FF48043A3
:103B600017E0002315E000BF3F8010FE0854025804
:103B70001C540258305402584454025858540258A5
:103B80006C54025880540258945402580F00FEFF9F
:103B900010237A68D268D2081A437B681B69DB0855
:103BA0001A437B685B69DB081A437B689B69DB0807
:103BB0001A437B68DB69DB081A437B681B6A1B09B5
:103BC00013437A6913437B617B681B687A691A60C7
:103BD0007B681B681A466E4B13446E4AA2FB032394
:103BE0001B099A007B68DA65786802F0B5F903462C
:103BF000FB607B68DB6D03F01F0301229A40FB68CA
:103C00005A6008E07B6840225A657B68032283F88B
:103C100035200123B7E07B681B685F4A934272D06E
:103C20007B681B685D4A93426DD07B681B685C4A69
:103C3000934268D07B681B685A4A934263D07B6882
:103C40001B68594A93425ED07B681B68574A93426F
:103C500059D07B681B68564A934254D07B681B68D6
:103C6000544A93424FD07B681B68534A93424AD0D0
:103C70007B681B68514A934245D07B681B68504A59
:103C8000934240D07B681B684E4A93423BD07B688E
:103C90001B684D4A934236D07B681B684B4A93425F
:103CA00031D07B681B684A4A93422CD07B681B68E2
:103CB000484A934227D07B681B68474A934222D0E8
:103CC0007B681B68454A93421DD07B681B68444A49
:103CD000934218D07B681B68424A934213D07B689A
:103CE0001B68414A93420ED07B681B683F4A93424F
:103CF00009D07B681B683E4A934204D07B681B68EE
:103D00003C4A934201D1012300E00023002B32D032
:103D1000786802F04FFA7B689B68802B02D17B6841
:103D200000225A607B685A687B681B6ED2B21A60A8
:103D30007B685B6E7A68926E5A607B685B68002B6A
:103D400010D07B685B68082B0CD8786802F0CCFA3E
:103D50007B68DB6E00221A607B681B6F7A68526F8B
:103D60005A6008E07B680022DA667B6800221A67E6
:103D70007B6800225A677B6800225A657B680122B3
:103D800083F83520002318461837BD4680BD00BF94
:103D9000F8ABFDA7CDCCCCCC1000024028000240EF
:103DA000400002405800024070000240880002407B
:103DB000A0000240B8000240100402402804024063
:103DC000400402405804024070040240880402404B
:103DD000A0040240B8040240085402581C5402587F
:103DE0003054025844540258585402586C540258E3
:103DF000805402589454025880B586B000AFF860E1
:103E0000B9607A603B600023FB75FB68002B01D131
:103E1000012326E2FB6893F83430012B01D1022301
:103E20001FE2FB68012283F83420FB6893F83530E9
:103E3000DBB2012B40F00A82FB68022283F83520B6
:103E4000FB6800225A65FB681B68684A93424AD0A7
:103E5000FB681B68664A934245D0FB681B68654A4D
:103E6000934240D0FB681B68634A93423BD0FB6897
:103E70001B68624A934236D0FB681B68604A9342D3
:103E800031D0FB681B685F4A93422CD0FB681B68EB
:103E90005D4A934227D0FB681B685C4A934222D05C
:103EA000FB681B685A4A93421DD0FB681B68594A3D
:103EB000934218D0FB681B68574A934213D0FB68A3
:103EC0001B68564A93420ED0FB681B68544A9342C3
:103ED00009D0FB681B68534A934204D0FB681B68F7
:103EE000514A934208D1FB681B681A68FB681B683B
:103EF00022F001021A6007E0FB681B681A68FB6881
:103F00001B6822F001021A603B687A68B968F86899
:103F100001F076FEFB681B68344A93424AD0FB6886
:103F20001B68334A934245D0FB681B68314A934271
:103F300040D0FB681B68304A93423BD0FB681B684B
:103F40002E4A934236D0FB681B682D4A934231D0EB
:103F5000FB681B682B4A93422CD0FB681B682A4ADB
:103F6000934227D0FB681B68284A934222D0FB6803
:103F70001B68274A93421DD0FB681B68254A934261
:103F800018D0FB681B68244A934213D0FB681B6857
:103F9000224A93420ED0FB681B68214A934209D003
:103FA000FB681B681F4A934204D0FB681B681E4ACB
:103FB000934201D1012300E00023002B36D0FB689F
:103FC0001B681B6823F01E02FB681B6842F0160288
:103FD0001A60FB681B6C002B3ED0FB681B681A68DC
:103FE000FB681B6842F008021A6035E010000240CE
:103FF0002800024040000240580002407000024089
:1040000088000240A0000240B800024010040240B4
:104010002804024040040240580402407004024058
:1040200088040240A0040240B8040240FB681B68F8
:104030001B6823F00E02FB681B6842F00A021A603C
:10404000FB681B6C002B07D0FB681B681A68FB68B9
:104050001B6842F004021A60FB681B68834A9342A3
:1040600072D0FB681B68824A93426DD0FB681B6864
:10407000804A934268D0FB681B687F4A934263D0B2
:10408000FB681B687D4A93425ED0FB681B687C4AD4
:10409000934259D0FB681B687A4A934254D0FB681C
:1040A0001B68794A93424FD0FB681B68774A93425A
:1040B0004AD0FB681B68764A934245D0FB681B6870
:1040C000744A934240D0FB681B68734A93423BD0CA
:1040D000FB681B68714A934236D0FB681B68704AC4
:1040E000934231D0FB681B686E4A93422CD0FB6828
:1040F0001B686D4A934227D0FB681B686B4A93424A
:1041000022D0FB681B686A4A93421DD0FB681B687B
:10411000684A934218D0FB681B68674A934213D0E1
:10412000FB681B68654A93420ED0FB681B68644AB3
:10413000934209D0FB681B68624A934204D0FB6833
:104140001B68614A934201D1012300E00023002B48
:104150001AD0FB681B6E1B6803F48033002B07D05A
:10416000FB681B6E1A68FB681B6E42F480721A6053
:10417000FB68DB6E002B07D0FB68DB6E1A68FB6800
:10418000DB6E42F480721A60FB681B68374A934208
:104190004AD0FB681B68364A934245D0FB681B68CF
:1041A000344A934240D0FB681B68334A93423BD069
:1041B000FB681B68314A934236D0FB681B68304A63
:1041C000934231D0FB681B682E4A93422CD0FB6887
:1041D0001B682D4A934227D0FB681B682B4A9342E9
:1041E00022D0FB681B682A4A93421DD0FB681B68DB
:1041F000284A934218D0FB681B68274A934213D081
:10420000FB681B68254A93420ED0FB681B68244A52
:10421000934209D0FB681B68224A934204D0FB6892
:104220001B68214A934208D1FB681B681A68FB6827
:104230001B6842F001021A6012E0FB681B681A68F2
:10424000FB681B6842F001021A6009E0FB684FF44A
:1042500000625A65FB68002283F834200123FB7555
:10426000FB7D18461837BD4680BD00BF10000240D8
:104270002800024040000240580002407000024006
:1042800088000240A0000240B80002401004024032
:1042900028040240400402405804024070040240D6
:1042A00088040240A0040240B804024008540258A6
:1042B0001C5402583054025844540258585402585E
:1042C0006C540258805402589454025880B586B0F9
:1042D00000AF786002F04CF938617B68002B01D1A7
:1042E0000123DCE27B6893F83530DBB2022B08D087
:1042F0007B6880225A657B68002283F83420012382
:10430000CDE27B681B68764A93424AD07B681B6883
:10431000744A934245D07B681B68734A934240D0ED
:104320007B681B68714A93423BD07B681B68704A6C
:10433000934236D07B681B686E4A934231D07B68CB
:104340001B686D4A93422CD07B681B686B4A934272
:1043500027D07B681B686A4A934222D07B681B681F
:10436000684A93421DD07B681B68674A934218D005
:104370007B681B68654A934213D07B681B68644A5C
:1043800093420ED07B681B68624A934209D07B68D7
:104390001B68614A934204D07B681B685F4A934262
:1043A00001D1012300E00023002B13D07B681B68A0
:1043B0001A687B681B6822F01E021A607B681B6803
:1043C0005A697B681B6822F080025A617B681B680F
:1043D0007B610AE07B681B681A687B681B6822F0B7
:1043E0000E021A607B681B687B617B681B683C4A15
:1043F000934272D07B681B683A4A93426DD07B68C7
:104400001B68394A934268D07B681B68374A9342DD
:1044100063D07B681B68364A93425ED07B681B681A
:10442000344A934259D07B681B68334A934254D034
:104430007B681B68314A93424FD07B681B68304AC7
:1044400093424AD07B681B682E4A934245D07B68D2
:104450001B682D4A934240D07B681B682B4A9342CD
:104460003BD07B681B682A4A934236D07B681B6826
:10447000284A934231D07B681B68274A93422CD04C
:104480007B681B68254A934227D07B681B68244AB7
:10449000934222D07B681B68224A93421DD07B68DE
:1044A0001B68214A934218D07B681B681F4A9342BD
:1044B00013D07B681B681E4A93420ED07B681B6832
:1044C0001C4A934209D07B681B681B4A934204D064
:1044D0007B681B68194A934232D1012331E000BF47
:1044E00010000240280002404000024058000240F4
:1044F0007000024088000240A0000240B800024064
:1045000010040240280402404004024058040240C3
:104510007004024088040240A0040240B804024033
:10452000085402581C54025830540258445402583B
:10453000585402586C5402588054025894540258EB
:104540000023002B07D07B681B6E1A687B681B6EEC
:1045500022F480721A607B681B686D4A93424AD0CD
:104560007B681B686B4A934245D07B681B686A4A2C
:10457000934240D07B681B68684A93423BD07B687B
:104580001B68674A934236D07B681B68654A934232
:1045900031D07B681B68644A93422CD07B681B68CF
:1045A000624A934227D07B681B68614A934222D0BB
:1045B0007B681B685F4A93421DD07B681B685E4A1C
:1045C000934218D07B681B685C4A934213D07B6887
:1045D0001B685B4A93420ED07B681B68594A934222
:1045E00009D07B681B68584A934204D07B681B68DB
:1045F000564A934208D17B681B681A687B681B681F
:1046000022F001021A6007E07B681B681A687B6869
:104610001B6822F001021A6013E001F0A9FF0246B4
:104620003B69D31A052B0CD97B6820225A657B681D
:10463000032283F835207B68002283F8342001238D
:104640002DE17B691B6803F00103002BE5D17B683A
:104650001B682F4A93424AD07B681B682D4A9342BD
:1046600045D07B681B682C4A934240D07B681B680E
:104670002A4A93423BD07B681B68294A934236D032
:104680007B681B68274A934231D07B681B68264AA7
:1046900093422CD07B681B68244A934227D07B68C6
:1046A0001B68234A934222D07B681B68214A9342AD
:1046B0001DD07B681B68204A934218D07B681B681A
:1046C0001E4A934213D07B681B681D4A93420ED04A
:1046D0007B681B681B4A934209D07B681B681A4A97
:1046E000934204D07B681B68184A934201D101238E
:1046F00000E00023002B2BD07B689B6DBB607B68A8
:10470000DB6D03F01F033F229A40BB689A602AE0EA
:1047100010000240280002404000024058000240C1
:104720007000024088000240A0000240B800024031
:104730001004024028040240400402405804024091
:104740007004024088040240A0040240B804024001
:104750007B689B6DFB607B68DB6D03F01F030122B0
:104760009A40FB685A607B681B684F4A934272D03C
:104770007B681B684D4A93426DD07B681B684C4A2E
:10478000934268D07B681B684A4A934263D07B6837
:104790001B68494A93425ED07B681B68474A934234
:1047A00059D07B681B68464A934254D07B681B688B
:1047B000444A93424FD07B681B68434A93424AD095
:1047C0007B681B68414A934245D07B681B68404A1E
:1047D000934240D07B681B683E4A93423BD07B6843
:1047E0001B683D4A934236D07B681B683B4A934224
:1047F00031D07B681B683A4A93422CD07B681B6897
:10480000384A934227D07B681B68374A934222D0AC
:104810007B681B68354A93421DD07B681B68344A0D
:10482000934218D07B681B68324A934213D07B684E
:104830001B68314A93420ED07B681B682F4A934213
:1048400009D07B681B682E4A934204D07B681B68A2
:104850002C4A934201D1012300E00023002B15D004
:104860007B685B6E7A68926E5A607B68DB6E002BA9
:104870000CD07B68DB6E1A687B68DB6E22F480727A
:104880001A607B681B6F7A68526F5A607B680122DE
:1048900083F835207B68002283F8342000231846F3
:1048A0001837BD4680BD00BF1000024028000240FE
:1048B0004000024058000240700002408800024060
:1048C000A0000240B8000240100402402804024048
:1048D0004004024058040240700402408804024030
:1048E000A0040240B8040240085402581C54025864
:1048F0003054025844540258585402586C540258C8
:10490000805402589454025880B584B000AF786047
:104910007B68002B01D1012337E27B6893F83530A7
:10492000DBB2022B04D07B6880225A6501232CE283
:104930007B681B685C4A93424AD07B681B685B4A71
:10494000934245D07B681B68594A934240D07B68AC
:104950001B68584A93423BD07B681B68564A934277
:1049600036D07B681B68554A934231D07B681B6800
:10497000534A93422CD07B681B68524A934227D0FB
:104980007B681B68504A934222D07B681B684F4A61
:1049900093421DD07B681B684D4A934218D07B68B8
:1049A0001B684C4A934213D07B681B684A4A934267
:1049B0000ED07B681B68494A934209D07B681B680C
:1049C000474A934204D07B681B68464A934201D110
:1049D000012300E00023002B00F086807B68042286
:1049E00083F835207B681B682F4A93424AD07B6846
:1049F0001B682E4A934245D07B681B682C4A934221
:104A000040D07B681B682B4A93423BD07B681B6875
:104A1000294A934236D07B681B68284A934231D09A
:104A20007B681B68264A93422CD07B681B68254A0A
:104A3000934227D07B681B68234A934222D07B682D
:104A40001B68224A93421DD07B681B68204A934210
:104A500018D07B681B681F4A934213D07B681B6881
:104A60001D4A93420ED07B681B681C4A934209D0B2
:104A70007B681B681A4A934204D07B681B68194AFA
:104A8000934208D17B681B681A687B681B6822F018
:104A900001021A6078E17B681B681A687B681B68F2
:104AA00022F001021A606FE110000240280002406B
:104AB000400002405800024070000240880002405E
:104AC000A0000240B8000240100402402804024046
:104AD000400402405804024070040240880402402E
:104AE000A0040240B80402407B681B681A687B6817
:104AF0001B6822F00E021A607B681B686C4A9342A6
:104B00004AD07B681B686B4A934245D07B681B6820
:104B1000694A934240D07B681B68684A93423BD005
:104B20007B681B68664A934236D07B681B68654A7F
:104B3000934231D07B681B68634A93422CD07B68D8
:104B40001B68624A934227D07B681B68604A934285
:104B500022D07B681B685F4A93421DD07B681B682C
:104B60005D4A934218D07B681B685C4A934213D01D
:104B70007B681B685A4A93420ED07B681B68594A6F
:104B8000934209D07B681B68574A934204D07B68E4
:104B90001B68564A934208D17B681B681A687B6879
:104BA0001B6822F001021A6007E07B681B681A6824
:104BB0007B681B6822F001021A607B681B683C4A14
:104BC000934272D07B681B683A4A93426DD07B68EF
:104BD0001B68394A934268D07B681B68374A934206
:104BE00063D07B681B68364A93425ED07B681B6843
:104BF000344A934259D07B681B68334A934254D05D
:104C00007B681B68314A93424FD07B681B68304AEF
:104C100093424AD07B681B682E4A934245D07B68FA
:104C20001B682D4A934240D07B681B682B4A9342F5
:104C30003BD07B681B682A4A934236D07B681B684E
:104C4000284A934231D07B681B68274A93422CD074
:104C50007B681B68254A934227D07B681B68244ADF
:104C6000934222D07B681B68224A93421DD07B6806
:104C70001B68214A934218D07B681B681F4A9342E5
:104C800013D07B681B681E4A93420ED07B681B685A
:104C90001C4A934209D07B681B681B4A934204D08C
:104CA0007B681B68194A934232D1012331E000BF6F
:104CB000100002402800024040000240580002401C
:104CC0007000024088000240A0000240B80002408C
:104CD00010040240280402404004024058040240EC
:104CE0007004024088040240A0040240B80402405C
:104CF000085402581C540258305402584454025864
:104D0000585402586C540258805402589454025813
:104D10000023002B28D07B681B6E1A687B681B6EF3
:104D200022F480721A607B689B6DFB607B68DB6D90
:104D300003F01F0301229A40FB685A607B685B6E98
:104D40007A68926E5A607B68DB6E002B0CD07B68B1
:104D5000DB6E1A687B68DB6E22F480721A607B68F7
:104D60001B6F7A68526F5A607B68012283F8352086
:104D70007B68002283F834207B681B6D002B03D0F6
:104D80007B681B6D78689847002318461037BD462E
:104D900080BD00BF80B58AB000AF78600023FB60A3
:104DA000674B1B68674AA2FB03239B0A7B627B68F5
:104DB0009B6D3B627B689B6DFB613B6A1B68BB61C3
:104DC000FB691B687B617B681B685F4A93424AD022
:104DD0007B681B685D4A934245D07B681B685C4AD0
:104DE000934240D07B681B685A4A93423BD07B6811
:104DF0001B68594A934236D07B681B68574A9342D6
:104E000031D07B681B68564A93422CD07B681B6864
:104E1000544A934227D07B681B68534A934222D05E
:104E20007B681B68514A93421DD07B681B68504ABF
:104E3000934218D07B681B684E4A934213D07B681C
:104E40001B684D4A93420ED07B681B684B4A9342C5
:104E500009D07B681B684A4A934204D07B681B6870
:104E6000484A934201D1012300E00023002B00F0C7
:104E70002B847B68DB6D03F01F0308229A40BB691B
:104E80001340002B00F0A2807B681B682E4A9342DF
:104E90004AD07B681B682D4A934245D07B681B68CB
:104EA0002B4A934240D07B681B682A4A93423BD0EE
:104EB0007B681B68284A934236D07B681B68274A68
:104EC000934231D07B681B68254A93422CD07B6883
:104ED0001B68244A934227D07B681B68224A93426E
:104EE00022D07B681B68214A93421DD07B681B68D7
:104EF0001F4A934218D07B681B681E4A934213D006
:104F00007B681B681C4A93420ED07B681B681B4A57
:104F1000934209D07B681B68194A934204D07B688E
:104F20001B68184A93422FD17B681B681B6803F0EB
:104F30000403002B14BF01230023DBB22EE000BFCB
:104F400000000020B5814E1B1000024028000240E6
:104F500040000240580002407000024088000240B9
:104F6000A0000240B80002401004024028040240A1
:104F70004004024058040240700402408804024089
:104F8000A0040240B80402407B681B681B6803F061
:104F90000803002B14BF01230023DBB2002B15D024
:104FA0007B681B681A687B681B6822F004021A6021
:104FB0007B68DB6D03F01F0308229A403B6A9A600E
:104FC0007B685B6D43F001027B685A657B68DB6D33
:104FD00003F01F03BA6922FA03F303F00103002B65
:104FE0006ED07B681B68694A93424AD07B681B6815
:104FF000674A934245D07B681B68664A934240D01B
:105000007B681B68644A93423BD07B681B68634A99
:10501000934236D07B681B68614A934231D07B68EB
:105020001B68604A93422CD07B681B685E4A93429F
:1050300027D07B681B685D4A934222D07B681B683F
:105040005B4A93421DD07B681B685A4A934218D032
:105050007B681B68584A934213D07B681B68574A89
:1050600093420ED07B681B68554A934209D07B68F7
:105070001B68544A934204D07B681B68524A93428F
:105080000AD17B681B685B6903F08003002B14BFA7
:1050900001230023DBB203E07B681B681B6800234D
:1050A000002B0DD07B68DB6D03F01F0301229A40BB
:1050B0003B6A9A607B685B6D43F002027B685A65CD
:1050C0007B68DB6D03F01F0304229A40BB69134029
:1050D000002B00F08F807B681B682C4A93424AD0DB
:1050E0007B681B682A4A934245D07B681B68294A23
:1050F000934240D07B681B68274A93423BD07B6831
:105100001B68264A934236D07B681B68244A934228
:1051100031D07B681B68234A93422CD07B681B6884
:10512000214A934227D07B681B68204A934222D0B1
:105130007B681B681E4A93421DD07B681B681D4A12
:10514000934218D07B681B681B4A934213D07B683C
:105150001B681A4A93420ED07B681B68184A934218
:1051600009D07B681B68174A934204D07B681B6890
:10517000154A93422AD17B681B681B6803F002031F
:10518000002B14BF01230023DBB223E010000240F8
:1051900028000240400002405800024070000240D7
:1051A00088000240A0000240B80002401004024003
:1051B00028040240400402405804024070040240A7
:1051C00088040240A0040240B80402407B681B68C7
:1051D0001B680023002B0DD07B68DB6D03F01F03E1
:1051E00004229A403B6A9A607B685B6D43F004023C
:1051F0007B685A657B68DB6D03F01F0310229A40C1
:10520000BB691340002B00F0A6807B681B68854AB1
:1052100093424AD07B681B68834A934245D07B689F
:105220001B68824A934240D07B681B68804A934245
:105230003BD07B681B687F4A934236D07B681B68F3
:105240007D4A934231D07B681B687C4A93422CD0C4
:105250007B681B687A4A934227D07B681B68794A2F
:10526000934222D07B681B68774A93421DD07B68AB
:105270001B68764A934218D07B681B68744A934235
:1052800013D07B681B68734A93420ED07B681B68FF
:10529000714A934209D07B681B68704A934204D0DC
:1052A0007B681B686E4A93420AD17B681B681B6847
:1052B00003F00803002B14BF01230023DBB209E035
:1052C0007B681B681B6803F00403002B14BF0123D9
:1052D0000023DBB2002B3ED07B68DB6D03F01F03A5
:1052E00010229A403B6A9A607B681B681B6803F433
:1052F0008023002B18D07B681B681B6803F40023F5
:10530000002B08D17B681B6C002B24D07B681B6CA6
:10531000786898471FE07B689B6C002B1BD07B68EC
:105320009B6C7868984716E07B681B681B6803F4E1
:105330008073002B07D17B681B681A687B681B6829
:1053400022F008021A607B681B6C002B03D07B687C
:105350001B6C786898477B68DB6D03F01F03202285
:105360009A40BB691340002B00F010817B681B68DA
:105370002C4A93424AD07B681B682B4A934245D003
:105380007B681B68294A934240D07B681B68284A87
:1053900093423BD07B681B68264A934236D07B6899
:1053A0001B68254A934231D07B681B68234A93428D
:1053B0002CD07B681B68224A934227D07B681B68ED
:1053C000204A934222D07B681B681F4A93421DD01B
:1053D0007B681B681D4A934218D07B681B681C4A77
:1053E000934213D07B681B681A4A93420ED07B68A5
:1053F0001B68194A934209D07B681B68174A93427D
:1054000004D07B681B68164A93422BD17B681B68CB
:105410001B6803F01003002B14BF01230023DBB231
:105420002AE000BF10000240280002404000024075
:10543000580002407000024088000240A000024074
:10544000B800024010040240280402404004024018
:10545000580402407004024088040240A004024044
:10546000B80402407B681B681B6803F00203002B32
:1054700014BF01230023DBB2002B00F087807B6880
:10548000DB6D03F01F0320229A403B6A9A607B6821
:1054900093F83530DBB2042B39D17B681B681A686E
:1054A0007B681B6822F016021A607B681B685A69C9
:1054B0007B681B6822F080025A617B681B6C002BA2
:1054C00003D17B689B6C002B07D07B681B681A6834
:1054D0007B681B6822F008021A607B68DB6D03F0B2
:1054E0001F033F229A403B6A9A607B68012283F83F
:1054F00035207B68002283F834207B681B6D002BED
:1055000000F04A837B681B6D7868984744E37B68AA
:105510001B681B6803F48023002B18D07B681B6872
:105520001B6803F40023002B08D17B685B6C002B05
:105530002CD07B685B6C7868984727E07B68DB6BD6
:10554000002B23D07B68DB6B786898471EE07B6874
:105550001B681B6803F48073002B0FD17B681B68EA
:105560001A687B681B6822F010021A607B680122AF
:1055700083F835207B68002283F834207B68DB6B5E
:10558000002B03D07B68DB6B786898477B685B6D8A
:10559000002B00F006837B685B6D03F00103002B9A
:1055A00000F088807B68042283F835207B681B68C4
:1055B0007A4A93424AD07B681B68794A934245D025
:1055C0007B681B68774A934240D07B681B68764AA9
:1055D00093423BD07B681B68744A934236D07B6809
:1055E0001B68734A934231D07B681B68714A9342AF
:1055F0002CD07B681B68704A934227D07B681B685D
:105600006E4A934222D07B681B686D4A93421DD03C
:105610007B681B686B4A934218D07B681B686A4A98
:10562000934213D07B681B68684A93420ED07B6814
:105630001B68674A934209D07B681B68654A93429E
:1056400004D07B681B68644A934208D17B681B685E
:105650001A687B681B6822F001021A6007E07B6809
:105660001B681A687B681B6822F001021A60FB68DD
:105670000133FB607A6A9A4207D37B681B681B6818
:1056800003F00103002BF2D100E000BF7B681B6830
:105690001B6803F00103002B04D07B68032283F80E
:1056A000352003E07B68012283F835207B680022E7
:1056B00083F834207B68DB6C002B00F072827B68FF
:1056C000DB6C786898476CE27B681B68434A9342BE
:1056D00022D07B681B68424A93421DD07B681B68BE
:1056E000404A934218D07B681B683F4A934213D0CC
:1056F0007B681B683D4A93420ED07B681B683C4A1E
:10570000934209D07B681B683A4A934204D07B6875
:105710001B68394A934201D1012300E00023002B8A
:1057200000F03F827B681B681B683B617B68DB6D18
:1057300003F01F0304229A407B691340002B00F002
:10574000CD803B6903F00403002B00F0C7807B6829
:10575000DB6D03F01F0304229A40FB695A603B692A
:1057600003F40043002B49D03B6903F48033002B42
:1057700009D17B689B6C002B00F010827B689B6CCE
:10578000786898470AE27B681B6C002B00F0068261
:105790007B681B6C7868984700E200BF10000240ED
:1057A00028000240400002405800024070000240C1
:1057B00088000240A0000240B800024010040240ED
:1057C0002804024040040240580402407004024091
:1057D00088040240A0040240B80402400854025861
:1057E0001C54025830540258445402585854025819
:1057F0006C54025880540258945402583B6903F088
:105800002003002B60D17B681B687F4A93424AD0FB
:105810007B681B687D4A934245D07B681B687C4A45
:10582000934240D07B681B687A4A93423BD07B68A6
:105830001B68794A934236D07B681B68774A93424B
:1058400031D07B681B68764A93422CD07B681B68FA
:10585000744A934227D07B681B68734A934222D0D4
:105860007B681B68714A93421DD07B681B68704A35
:10587000934218D07B681B686E4A934213D07B68B2
:105880001B686D4A93420ED07B681B686B4A93423B
:1058900009D07B681B686A4A934204D07B681B6806
:1058A000684A934208D17B681B681A687B681B684A
:1058B00022F008021A6007E07B681B681A687B68A0
:1058C0001B6822F004021A607B681B6C002B00F03E
:1058D00065817B681B6C786898475FE17B68DB6D4E
:1058E00003F01F0302229A407B691340002B00F053
:1058F000C5803B6903F00203002B00F0BF807B688A
:10590000DB6D03F01F0302229A40FB695A603B697A
:1059100003F40043002B18D03B6903F48033002BC1
:1059200009D17B685B6C002B00F03A817B685B6C73
:105930007868984734E17B68DB6B002B00F030819E
:105940007B68DB6B786898472AE13B6903F02003AA
:10595000002B40F089807B681B682B4A93424AD019
:105960007B681B68294A934245D07B681B68284A9C
:10597000934240D07B681B68264A93423BD07B68A9
:105980001B68254A934236D07B681B68234A9342A2
:1059900031D07B681B68224A93422CD07B681B68FD
:1059A000204A934227D07B681B681F4A934222D02B
:1059B0007B681B681D4A93421DD07B681B681C4A8C
:1059C000934218D07B681B681A4A934213D07B68B5
:1059D0001B68194A93420ED07B681B68174A934292
:1059E00009D07B681B68164A934204D07B681B6809
:1059F000144A934228D17B681B681A687B681B682D
:105A000022F014021A6027E0100002402800024031
:105A100040000240580002407000024088000240EE
:105A2000A0000240B80002401004024028040240D6
:105A300040040240580402407004024088040240BE
:105A4000A0040240B80402407B681B681A687B68A7
:105A50001B6822F00A021A607B68012283F8352055
:105A60007B68002283F834207B68DB6B002B00F01E
:105A700097807B68DB6B7868984791E07B68DB6D8B
:105A800003F01F0308229A407B691340002B00F0AB
:105A900088803B6903F00803002B00F082807B685C
:105AA0001B68414A93424AD07B681B683F4A934235
:105AB00045D07B681B683E4A934240D07B681B6898
:105AC0003C4A93423BD07B681B683B4A934236D0AA
:105AD0007B681B68394A934231D07B681B68384A1F
